{
  "_format": "hh-sol-artifact-1",
  "contractName": "ResumeNFT",
  "sourceName": "contracts/ResumeNFT.sol",
  "abi": [
    {
      "inputs": [
        {
          "internalType": "address",
          "name": "_verificationManager",
          "type": "address"
        },
        {
          "internalType": "address",
          "name": "initialOwner",
          "type": "address"
        }
      ],
      "stateMutability": "nonpayable",
      "type": "constructor"
    },
    {
      "inputs": [],
      "name": "ERC721EnumerableForbiddenBatchMint",
      "type": "error"
    },
    {
      "inputs": [
        {
          "internalType": "address",
          "name": "sender",
          "type": "address"
        },
        {
          "internalType": "uint256",
          "name": "tokenId",
          "type": "uint256"
        },
        {
          "internalType": "address",
          "name": "owner",
          "type": "address"
        }
      ],
      "name": "ERC721IncorrectOwner",
      "type": "error"
    },
    {
      "inputs": [
        {
          "internalType": "address",
          "name": "operator",
          "type": "address"
        },
        {
          "internalType": "uint256",
          "name": "tokenId",
          "type": "uint256"
        }
      ],
      "name": "ERC721InsufficientApproval",
      "type": "error"
    },
    {
      "inputs": [
        {
          "internalType": "address",
          "name": "approver",
          "type": "address"
        }
      ],
      "name": "ERC721InvalidApprover",
      "type": "error"
    },
    {
      "inputs": [
        {
          "internalType": "address",
          "name": "operator",
          "type": "address"
        }
      ],
      "name": "ERC721InvalidOperator",
      "type": "error"
    },
    {
      "inputs": [
        {
          "internalType": "address",
          "name": "owner",
          "type": "address"
        }
      ],
      "name": "ERC721InvalidOwner",
      "type": "error"
    },
    {
      "inputs": [
        {
          "internalType": "address",
          "name": "receiver",
          "type": "address"
        }
      ],
      "name": "ERC721InvalidReceiver",
      "type": "error"
    },
    {
      "inputs": [
        {
          "internalType": "address",
          "name": "sender",
          "type": "address"
        }
      ],
      "name": "ERC721InvalidSender",
      "type": "error"
    },
    {
      "inputs": [
        {
          "internalType": "uint256",
          "name": "tokenId",
          "type": "uint256"
        }
      ],
      "name": "ERC721NonexistentToken",
      "type": "error"
    },
    {
      "inputs": [
        {
          "internalType": "address",
          "name": "owner",
          "type": "address"
        },
        {
          "internalType": "uint256",
          "name": "index",
          "type": "uint256"
        }
      ],
      "name": "ERC721OutOfBoundsIndex",
      "type": "error"
    },
    {
      "inputs": [],
      "name": "InvalidEntryId",
      "type": "error"
    },
    {
      "inputs": [],
      "name": "InvalidTokenId",
      "type": "error"
    },
    {
      "inputs": [],
      "name": "NotAuthorized",
      "type": "error"
    },
    {
      "inputs": [],
      "name": "NotOwner",
      "type": "error"
    },
    {
      "inputs": [],
      "name": "OrganizationNotVerified",
      "type": "error"
    },
    {
      "inputs": [
        {
          "internalType": "address",
          "name": "owner",
          "type": "address"
        }
      ],
      "name": "OwnableInvalidOwner",
      "type": "error"
    },
    {
      "inputs": [
        {
          "internalType": "address",
          "name": "account",
          "type": "address"
        }
      ],
      "name": "OwnableUnauthorizedAccount",
      "type": "error"
    },
    {
      "inputs": [],
      "name": "TransferDisabled",
      "type": "error"
    },
    {
      "anonymous": false,
      "inputs": [
        {
          "indexed": true,
          "internalType": "address",
          "name": "owner",
          "type": "address"
        },
        {
          "indexed": true,
          "internalType": "address",
          "name": "approved",
          "type": "address"
        },
        {
          "indexed": true,
          "internalType": "uint256",
          "name": "tokenId",
          "type": "uint256"
        }
      ],
      "name": "Approval",
      "type": "event"
    },
    {
      "anonymous": false,
      "inputs": [
        {
          "indexed": true,
          "internalType": "address",
          "name": "owner",
          "type": "address"
        },
        {
          "indexed": true,
          "internalType": "address",
          "name": "operator",
          "type": "address"
        },
        {
          "indexed": false,
          "internalType": "bool",
          "name": "approved",
          "type": "bool"
        }
      ],
      "name": "ApprovalForAll",
      "type": "event"
    },
    {
      "anonymous": false,
      "inputs": [
        {
          "indexed": false,
          "internalType": "uint256",
          "name": "_fromTokenId",
          "type": "uint256"
        },
        {
          "indexed": false,
          "internalType": "uint256",
          "name": "_toTokenId",
          "type": "uint256"
        }
      ],
      "name": "BatchMetadataUpdate",
      "type": "event"
    },
    {
      "anonymous": false,
      "inputs": [
        {
          "indexed": false,
          "internalType": "uint256",
          "name": "_tokenId",
          "type": "uint256"
        }
      ],
      "name": "MetadataUpdate",
      "type": "event"
    },
    {
      "anonymous": false,
      "inputs": [
        {
          "indexed": true,
          "internalType": "address",
          "name": "previousOwner",
          "type": "address"
        },
        {
          "indexed": true,
          "internalType": "address",
          "name": "newOwner",
          "type": "address"
        }
      ],
      "name": "OwnershipTransferred",
      "type": "event"
    },
    {
      "anonymous": false,
      "inputs": [
        {
          "indexed": true,
          "internalType": "uint256",
          "name": "tokenId",
          "type": "uint256"
        }
      ],
      "name": "ResumeBurned",
      "type": "event"
    },
    {
      "anonymous": false,
      "inputs": [
        {
          "indexed": true,
          "internalType": "address",
          "name": "recipient",
          "type": "address"
        },
        {
          "indexed": false,
          "internalType": "uint256",
          "name": "tokenId",
          "type": "uint256"
        }
      ],
      "name": "ResumeMinted",
      "type": "event"
    },
    {
      "anonymous": false,
      "inputs": [
        {
          "indexed": true,
          "internalType": "uint256",
          "name": "tokenId",
          "type": "uint256"
        },
        {
          "indexed": false,
          "internalType": "string",
          "name": "newTokenURI",
          "type": "string"
        }
      ],
      "name": "ResumeUpdated",
      "type": "event"
    },
    {
      "anonymous": false,
      "inputs": [
        {
          "indexed": true,
          "internalType": "address",
          "name": "from",
          "type": "address"
        },
        {
          "indexed": true,
          "internalType": "address",
          "name": "to",
          "type": "address"
        },
        {
          "indexed": true,
          "internalType": "uint256",
          "name": "tokenId",
          "type": "uint256"
        }
      ],
      "name": "Transfer",
      "type": "event"
    },
    {
      "anonymous": false,
      "inputs": [
        {
          "indexed": true,
          "internalType": "uint256",
          "name": "tokenId",
          "type": "uint256"
        },
        {
          "indexed": false,
          "internalType": "bool",
          "name": "isTransferable",
          "type": "bool"
        }
      ],
      "name": "TransferabilityChanged",
      "type": "event"
    },
    {
      "inputs": [
        {
          "internalType": "address",
          "name": "to",
          "type": "address"
        },
        {
          "internalType": "uint256",
          "name": "tokenId",
          "type": "uint256"
        }
      ],
      "name": "approve",
      "outputs": [],
      "stateMutability": "nonpayable",
      "type": "function"
    },
    {
      "inputs": [
        {
          "internalType": "address",
          "name": "owner",
          "type": "address"
        }
      ],
      "name": "balanceOf",
      "outputs": [
        {
          "internalType": "uint256",
          "name": "",
          "type": "uint256"
        }
      ],
      "stateMutability": "view",
      "type": "function"
    },
    {
      "inputs": [
        {
          "internalType": "uint256",
          "name": "tokenId",
          "type": "uint256"
        }
      ],
      "name": "burnResume",
      "outputs": [],
      "stateMutability": "nonpayable",
      "type": "function"
    },
    {
      "inputs": [
        {
          "internalType": "uint256",
          "name": "tokenId",
          "type": "uint256"
        }
      ],
      "name": "getApproved",
      "outputs": [
        {
          "internalType": "address",
          "name": "",
          "type": "address"
        }
      ],
      "stateMutability": "view",
      "type": "function"
    },
    {
      "inputs": [
        {
          "internalType": "uint256",
          "name": "tokenId",
          "type": "uint256"
        }
      ],
      "name": "getTokenURI",
      "outputs": [
        {
          "internalType": "string",
          "name": "",
          "type": "string"
        }
      ],
      "stateMutability": "view",
      "type": "function"
    },
    {
      "inputs": [
        {
          "internalType": "address",
          "name": "owner",
          "type": "address"
        },
        {
          "internalType": "address",
          "name": "operator",
          "type": "address"
        }
      ],
      "name": "isApprovedForAll",
      "outputs": [
        {
          "internalType": "bool",
          "name": "",
          "type": "bool"
        }
      ],
      "stateMutability": "view",
      "type": "function"
    },
    {
      "inputs": [
        {
          "internalType": "uint256",
          "name": "tokenId",
          "type": "uint256"
        }
      ],
      "name": "isTransferable",
      "outputs": [
        {
          "internalType": "bool",
          "name": "",
          "type": "bool"
        }
      ],
      "stateMutability": "view",
      "type": "function"
    },
    {
      "inputs": [
        {
          "internalType": "address",
          "name": "recipient",
          "type": "address"
        },
        {
          "internalType": "string",
          "name": "metadataURI",
          "type": "string"
        }
      ],
      "name": "mintResume",
      "outputs": [
        {
          "internalType": "uint256",
          "name": "",
          "type": "uint256"
        }
      ],
      "stateMutability": "nonpayable",
      "type": "function"
    },
    {
      "inputs": [],
      "name": "name",
      "outputs": [
        {
          "internalType": "string",
          "name": "",
          "type": "string"
        }
      ],
      "stateMutability": "view",
      "type": "function"
    },
    {
      "inputs": [],
      "name": "owner",
      "outputs": [
        {
          "internalType": "address",
          "name": "",
          "type": "address"
        }
      ],
      "stateMutability": "view",
      "type": "function"
    },
    {
      "inputs": [
        {
          "internalType": "uint256",
          "name": "tokenId",
          "type": "uint256"
        }
      ],
      "name": "ownerOf",
      "outputs": [
        {
          "internalType": "address",
          "name": "",
          "type": "address"
        }
      ],
      "stateMutability": "view",
      "type": "function"
    },
    {
      "inputs": [],
      "name": "renounceOwnership",
      "outputs": [],
      "stateMutability": "nonpayable",
      "type": "function"
    },
    {
      "inputs": [
        {
          "internalType": "uint256",
          "name": "tokenId",
          "type": "uint256"
        },
        {
          "internalType": "string",
          "name": "entryId",
          "type": "string"
        },
        {
          "internalType": "address",
          "name": "organization",
          "type": "address"
        },
        {
          "internalType": "string",
          "name": "details",
          "type": "string"
        }
      ],
      "name": "requestVerification",
      "outputs": [
        {
          "internalType": "uint256",
          "name": "",
          "type": "uint256"
        }
      ],
      "stateMutability": "nonpayable",
      "type": "function"
    },
    {
      "inputs": [
        {
          "internalType": "address",
          "name": "from",
          "type": "address"
        },
        {
          "internalType": "address",
          "name": "to",
          "type": "address"
        },
        {
          "internalType": "uint256",
          "name": "tokenId",
          "type": "uint256"
        }
      ],
      "name": "safeTransferFrom",
      "outputs": [],
      "stateMutability": "nonpayable",
      "type": "function"
    },
    {
      "inputs": [
        {
          "internalType": "address",
          "name": "from",
          "type": "address"
        },
        {
          "internalType": "address",
          "name": "to",
          "type": "address"
        },
        {
          "internalType": "uint256",
          "name": "tokenId",
          "type": "uint256"
        },
        {
          "internalType": "bytes",
          "name": "data",
          "type": "bytes"
        }
      ],
      "name": "safeTransferFrom",
      "outputs": [],
      "stateMutability": "nonpayable",
      "type": "function"
    },
    {
      "inputs": [
        {
          "internalType": "address",
          "name": "operator",
          "type": "address"
        },
        {
          "internalType": "bool",
          "name": "approved",
          "type": "bool"
        }
      ],
      "name": "setApprovalForAll",
      "outputs": [],
      "stateMutability": "nonpayable",
      "type": "function"
    },
    {
      "inputs": [
        {
          "internalType": "uint256",
          "name": "tokenId",
          "type": "uint256"
        },
        {
          "internalType": "bool",
          "name": "transferable_",
          "type": "bool"
        }
      ],
      "name": "setTransferable",
      "outputs": [],
      "stateMutability": "nonpayable",
      "type": "function"
    },
    {
      "inputs": [
        {
          "internalType": "bytes4",
          "name": "interfaceId",
          "type": "bytes4"
        }
      ],
      "name": "supportsInterface",
      "outputs": [
        {
          "internalType": "bool",
          "name": "",
          "type": "bool"
        }
      ],
      "stateMutability": "view",
      "type": "function"
    },
    {
      "inputs": [],
      "name": "symbol",
      "outputs": [
        {
          "internalType": "string",
          "name": "",
          "type": "string"
        }
      ],
      "stateMutability": "view",
      "type": "function"
    },
    {
      "inputs": [
        {
          "internalType": "uint256",
          "name": "index",
          "type": "uint256"
        }
      ],
      "name": "tokenByIndex",
      "outputs": [
        {
          "internalType": "uint256",
          "name": "",
          "type": "uint256"
        }
      ],
      "stateMutability": "view",
      "type": "function"
    },
    {
      "inputs": [
        {
          "internalType": "address",
          "name": "owner",
          "type": "address"
        },
        {
          "internalType": "uint256",
          "name": "index",
          "type": "uint256"
        }
      ],
      "name": "tokenOfOwnerByIndex",
      "outputs": [
        {
          "internalType": "uint256",
          "name": "",
          "type": "uint256"
        }
      ],
      "stateMutability": "view",
      "type": "function"
    },
    {
      "inputs": [
        {
          "internalType": "uint256",
          "name": "tokenId",
          "type": "uint256"
        }
      ],
      "name": "tokenURI",
      "outputs": [
        {
          "internalType": "string",
          "name": "",
          "type": "string"
        }
      ],
      "stateMutability": "view",
      "type": "function"
    },
    {
      "inputs": [],
      "name": "totalSupply",
      "outputs": [
        {
          "internalType": "uint256",
          "name": "",
          "type": "uint256"
        }
      ],
      "stateMutability": "view",
      "type": "function"
    },
    {
      "inputs": [
        {
          "internalType": "address",
          "name": "from",
          "type": "address"
        },
        {
          "internalType": "address",
          "name": "to",
          "type": "address"
        },
        {
          "internalType": "uint256",
          "name": "tokenId",
          "type": "uint256"
        }
      ],
      "name": "transferFrom",
      "outputs": [],
      "stateMutability": "nonpayable",
      "type": "function"
    },
    {
      "inputs": [
        {
          "internalType": "address",
          "name": "newOwner",
          "type": "address"
        }
      ],
      "name": "transferOwnership",
      "outputs": [],
      "stateMutability": "nonpayable",
      "type": "function"
    },
    {
      "inputs": [
        {
          "internalType": "uint256",
          "name": "tokenId",
          "type": "uint256"
        },
        {
          "internalType": "string",
          "name": "newTokenURI",
          "type": "string"
        }
      ],
      "name": "updateResumeURI",
      "outputs": [],
      "stateMutability": "nonpayable",
      "type": "function"
    },
    {
      "inputs": [
        {
          "internalType": "address",
          "name": "newManager",
          "type": "address"
        }
      ],
      "name": "updateVerificationManager",
      "outputs": [],
      "stateMutability": "nonpayable",
      "type": "function"
    },
    {
      "inputs": [],
      "name": "verificationManager",
      "outputs": [
        {
          "internalType": "contract VerificationManager",
          "name": "",
          "type": "address"
        }
      ],
      "stateMutability": "view",
      "type": "function"
    }
  ],
  "bytecode": "0x608060405234801561001057600080fd5b50604051613e1e380380613e1e833981810160405281019061003291906102b4565b806040518060400160405280600981526020017f526573756d654e465400000000000000000000000000000000000000000000008152506040518060400160405280600481526020017f524e46540000000000000000000000000000000000000000000000000000000081525081600090816100ae9190610544565b5080600190816100be9190610544565b505050600073ffffffffffffffffffffffffffffffffffffffff168173ffffffffffffffffffffffffffffffffffffffff16036101335760006040517f1e4fbdf700000000000000000000000000000000000000000000000000000000815260040161012a9190610625565b60405180910390fd5b6101428161018b60201b60201c565b5081600d60006101000a81548173ffffffffffffffffffffffffffffffffffffffff021916908373ffffffffffffffffffffffffffffffffffffffff1602179055505050610640565b6000600b60009054906101000a900473ffffffffffffffffffffffffffffffffffffffff16905081600b60006101000a81548173ffffffffffffffffffffffffffffffffffffffff021916908373ffffffffffffffffffffffffffffffffffffffff1602179055508173ffffffffffffffffffffffffffffffffffffffff168173ffffffffffffffffffffffffffffffffffffffff167f8be0079c531659141344cd1fd0a4f28419497f9722a3daafe3b4186f6b6457e060405160405180910390a35050565b600080fd5b600073ffffffffffffffffffffffffffffffffffffffff82169050919050565b600061028182610256565b9050919050565b61029181610276565b811461029c57600080fd5b50565b6000815190506102ae81610288565b92915050565b600080604083850312156102cb576102ca610251565b5b60006102d98582860161029f565b92505060206102ea8582860161029f565b9150509250929050565b600081519050919050565b7f4e487b7100000000000000000000000000000000000000000000000000000000600052604160045260246000fd5b7f4e487b7100000000000000000000000000000000000000000000000000000000600052602260045260246000fd5b6000600282049050600182168061037557607f821691505b6020821081036103885761038761032e565b5b50919050565b60008190508160005260206000209050919050565b60006020601f8301049050919050565b600082821b905092915050565b6000600883026103f07fffffffffffffffffffffffffffffffffffffffffffffffffffffffffffffffff826103b3565b6103fa86836103b3565b95508019841693508086168417925050509392505050565b6000819050919050565b6000819050919050565b600061044161043c61043784610412565b61041c565b610412565b9050919050565b6000819050919050565b61045b83610426565b61046f61046782610448565b8484546103c0565b825550505050565b600090565b610484610477565b61048f818484610452565b505050565b5b818110156104b3576104a860008261047c565b600181019050610495565b5050565b601f8211156104f8576104c98161038e565b6104d2846103a3565b810160208510156104e1578190505b6104f56104ed856103a3565b830182610494565b50505b505050565b600082821c905092915050565b600061051b600019846008026104fd565b1980831691505092915050565b6000610534838361050a565b9150826002028217905092915050565b61054d826102f4565b67ffffffffffffffff811115610566576105656102ff565b5b610570825461035d565b61057b8282856104b7565b600060209050601f8311600181146105ae576000841561059c578287015190505b6105a68582610528565b86555061060e565b601f1984166105bc8661038e565b60005b828110156105e4578489015182556001820191506020850194506020810190506105bf565b8683101561060157848901516105fd601f89168261050a565b8355505b6001600288020188555050505b505050505050565b61061f81610276565b82525050565b600060208201905061063a6000830184610616565b92915050565b6137cf8061064f6000396000f3fe608060405234801561001057600080fd5b50600436106101c45760003560e01c806370a08231116100f9578063b88d4fde11610097578063dfe28fbf11610071578063dfe28fbf1461053b578063e985e9c514610557578063f2fde38b14610587578063f8a8fbdb146105a3576101c4565b8063b88d4fde146104bf578063c47b3609146104db578063c87b56dd1461050b576101c4565b806395d89b41116100d357806395d89b411461043957806399bdd4ec14610457578063a22cb46514610473578063b25645691461048f576101c4565b806370a08231146103e1578063715018a6146104115780638da5cb5b1461041b576101c4565b806323b872dd1161016657806342842e0e1161014057806342842e0e146103355780634f6ccce7146103515780636352211e1461038157806368cc8565146103b1576101c4565b806323b872dd146102b95780632f745c59146102d55780633bb3a24d14610305576101c4565b8063095ea7b3116101a2578063095ea7b3146102475780630b1f2774146102635780630f4739441461027f57806318160ddd1461029b576101c4565b806301ffc9a7146101c957806306fdde03146101f9578063081812fc14610217575b600080fd5b6101e360048036038101906101de9190612927565b6105c1565b6040516101f0919061296f565b60405180910390f35b6102016105d3565b60405161020e9190612a1a565b60405180910390f35b610231600480360381019061022c9190612a72565b610665565b60405161023e9190612ae0565b60405180910390f35b610261600480360381019061025c9190612b27565b610681565b005b61027d60048036038101906102789190612b67565b610697565b005b61029960048036038101906102949190612cc9565b6106e3565b005b6102a3610796565b6040516102b09190612d34565b60405180910390f35b6102d360048036038101906102ce9190612d4f565b6107a3565b005b6102ef60048036038101906102ea9190612b27565b6108a5565b6040516102fc9190612d34565b60405180910390f35b61031f600480360381019061031a9190612a72565b61094e565b60405161032c9190612a1a565b60405180910390f35b61034f600480360381019061034a9190612d4f565b610960565b005b61036b60048036038101906103669190612a72565b610980565b6040516103789190612d34565b60405180910390f35b61039b60048036038101906103969190612a72565b6109f6565b6040516103a89190612ae0565b60405180910390f35b6103cb60048036038101906103c69190612da2565b610a08565b6040516103d89190612d34565b60405180910390f35b6103fb60048036038101906103f69190612b67565b610ac3565b6040516104089190612d34565b60405180910390f35b610419610b7d565b005b610423610b91565b6040516104309190612ae0565b60405180910390f35b610441610bbb565b60405161044e9190612a1a565b60405180910390f35b610471600480360381019061046c9190612a72565b610c4d565b005b61048d60048036038101906104889190612e2a565b610cf2565b005b6104a960048036038101906104a49190612a72565b610d08565b6040516104b6919061296f565b60405180910390f35b6104d960048036038101906104d49190612f0b565b610d32565b005b6104f560048036038101906104f09190612f8e565b610d57565b6040516105029190612d34565b60405180910390f35b61052560048036038101906105209190612a72565b610fbc565b6040516105329190612a1a565b60405180910390f35b6105556004803603810190610550919061302d565b610fce565b005b610571600480360381019061056c919061306d565b61103d565b60405161057e919061296f565b60405180910390f35b6105a1600480360381019061059c9190612b67565b6110d1565b005b6105ab611157565b6040516105b8919061310c565b60405180910390f35b60006105cc8261117d565b9050919050565b6060600080546105e290613156565b80601f016020809104026020016040519081016040528092919081815260200182805461060e90613156565b801561065b5780601f106106305761010080835404028352916020019161065b565b820191906000526020600020905b81548152906001019060200180831161063e57829003601f168201915b5050505050905090565b6000610670826111de565b5061067a82611266565b9050919050565b610693828261068e6112a3565b6112ab565b5050565b61069f6112bd565b80600d60006101000a81548173ffffffffffffffffffffffffffffffffffffffff021916908373ffffffffffffffffffffffffffffffffffffffff16021790555050565b3373ffffffffffffffffffffffffffffffffffffffff16610703836109f6565b73ffffffffffffffffffffffffffffffffffffffff1614610750576040517f30cd747100000000000000000000000000000000000000000000000000000000815260040160405180910390fd5b61075a8282611344565b817f05813f77eccf0a956da709cfd571af5f424e4ce0bc9612d08a28dcc2776d408e8260405161078a9190612a1a565b60405180910390a25050565b6000600880549050905090565b600073ffffffffffffffffffffffffffffffffffffffff168273ffffffffffffffffffffffffffffffffffffffff16036108155760006040517f64a0ae9200000000000000000000000000000000000000000000000000000000815260040161080c9190612ae0565b60405180910390fd5b600061082983836108246112a3565b6113a0565b90508373ffffffffffffffffffffffffffffffffffffffff168173ffffffffffffffffffffffffffffffffffffffff161461089f578382826040517f64283d7b00000000000000000000000000000000000000000000000000000000815260040161089693929190613187565b60405180910390fd5b50505050565b60006108b083610ac3565b82106108f55782826040517fa57d13dc0000000000000000000000000000000000000000000000000000000081526004016108ec9291906131be565b60405180910390fd5b600660008473ffffffffffffffffffffffffffffffffffffffff1673ffffffffffffffffffffffffffffffffffffffff168152602001908152602001600020600083815260200190815260200160002054905092915050565b606061095982610fbc565b9050919050565b61097b83838360405180602001604052806000815250610d32565b505050565b600061098a610796565b82106109d0576000826040517fa57d13dc0000000000000000000000000000000000000000000000000000000081526004016109c79291906131be565b60405180910390fd5b600882815481106109e4576109e36131e7565b5b90600052602060002001549050919050565b6000610a01826111de565b9050919050565b60006001600c6000828254610a1d9190613245565b925050819055506000600c549050610a35848261148e565b610a3f8184611344565b6000600e600083815260200190815260200160002060006101000a81548160ff0219169083151502179055508373ffffffffffffffffffffffffffffffffffffffff167f34ad0fa11356c78fe0175f4ac7e59b4bbbfc0c9b461ca06a60dfbb48d943dc6382604051610ab19190612d34565b60405180910390a28091505092915050565b60008073ffffffffffffffffffffffffffffffffffffffff168273ffffffffffffffffffffffffffffffffffffffff1603610b365760006040517f89c62b64000000000000000000000000000000000000000000000000000000008152600401610b2d9190612ae0565b60405180910390fd5b600360008373ffffffffffffffffffffffffffffffffffffffff1673ffffffffffffffffffffffffffffffffffffffff168152602001908152602001600020549050919050565b610b856112bd565b610b8f6000611587565b565b6000600b60009054906101000a900473ffffffffffffffffffffffffffffffffffffffff16905090565b606060018054610bca90613156565b80601f0160208091040260200160405190810160405280929190818152602001828054610bf690613156565b8015610c435780601f10610c1857610100808354040283529160200191610c43565b820191906000526020600020905b815481529060010190602001808311610c2657829003601f168201915b5050505050905090565b610c60610c598261164d565b338361168a565b610c96576040517fea8e4eb500000000000000000000000000000000000000000000000000000000815260040160405180910390fd5b610c9f8161174b565b600e600082815260200190815260200160002060006101000a81549060ff0219169055807f36ea7415e26340b5571a567474342f4391e759c97664f72dc93d46edfaf6bd9760405160405180910390a250565b610d04610cfd6112a3565b83836117d1565b5050565b6000600e600083815260200190815260200160002060009054906101000a900460ff169050919050565b610d3d8484846107a3565b610d51610d486112a3565b85858585611940565b50505050565b60003373ffffffffffffffffffffffffffffffffffffffff16610d79866109f6565b73ffffffffffffffffffffffffffffffffffffffff1614610dc6576040517f30cd747100000000000000000000000000000000000000000000000000000000815260040160405180910390fd5b600d60009054906101000a900473ffffffffffffffffffffffffffffffffffffffff1673ffffffffffffffffffffffffffffffffffffffff16630289187c846040518263ffffffff1660e01b8152600401610e219190612ae0565b602060405180830381865afa158015610e3e573d6000803e3d6000fd5b505050506040513d601f19601f82011682018060405250810190610e62919061328e565b610e98576040517fd1a90b3f00000000000000000000000000000000000000000000000000000000815260040160405180910390fd5b6000845103610ed3576040517f549b6a4c00000000000000000000000000000000000000000000000000000000815260040160405180910390fd5b6000825103610f0e576040517f549b6a4c00000000000000000000000000000000000000000000000000000000815260040160405180910390fd5b600d60009054906101000a900473ffffffffffffffffffffffffffffffffffffffff1673ffffffffffffffffffffffffffffffffffffffff1663724905d6868686866040518563ffffffff1660e01b8152600401610f6f94939291906132bb565b6020604051808303816000875af1158015610f8e573d6000803e3d6000fd5b505050506040513d601f19601f82011682018060405250810190610fb29190613323565b9050949350505050565b6060610fc782611af1565b9050919050565b610fd66112bd565b80600e600084815260200190815260200160002060006101000a81548160ff021916908315150217905550817f2eab018bea08c2af89573dffdb6eb11287960920a6196c75324e7691330fc93082604051611031919061296f565b60405180910390a25050565b6000600560008473ffffffffffffffffffffffffffffffffffffffff1673ffffffffffffffffffffffffffffffffffffffff16815260200190815260200160002060008373ffffffffffffffffffffffffffffffffffffffff1673ffffffffffffffffffffffffffffffffffffffff16815260200190815260200160002060009054906101000a900460ff16905092915050565b6110d96112bd565b600073ffffffffffffffffffffffffffffffffffffffff168173ffffffffffffffffffffffffffffffffffffffff160361114b5760006040517f1e4fbdf70000000000000000000000000000000000000000000000000000000081526004016111429190612ae0565b60405180910390fd5b61115481611587565b50565b600d60009054906101000a900473ffffffffffffffffffffffffffffffffffffffff1681565b6000634906490660e01b7bffffffffffffffffffffffffffffffffffffffffffffffffffffffff1916827bffffffffffffffffffffffffffffffffffffffffffffffffffffffff191614806111d757506111d682611c04565b5b9050919050565b6000806111ea8361164d565b9050600073ffffffffffffffffffffffffffffffffffffffff168173ffffffffffffffffffffffffffffffffffffffff160361125d57826040517f7e2732890000000000000000000000000000000000000000000000000000000081526004016112549190612d34565b60405180910390fd5b80915050919050565b60006004600083815260200190815260200160002060009054906101000a900473ffffffffffffffffffffffffffffffffffffffff169050919050565b600033905090565b6112b88383836001611c7e565b505050565b6112c56112a3565b73ffffffffffffffffffffffffffffffffffffffff166112e3610b91565b73ffffffffffffffffffffffffffffffffffffffff1614611342576113066112a3565b6040517f118cdaa70000000000000000000000000000000000000000000000000000000081526004016113399190612ae0565b60405180910390fd5b565b80600a6000848152602001908152602001600020908161136491906134f2565b507ff8e1a15aba9398e019f0b49df1a4fde98ee17ae345cb5f6b5e2c27f5033e8ce7826040516113949190612d34565b60405180910390a15050565b6000806113ac8461164d565b9050600073ffffffffffffffffffffffffffffffffffffffff168173ffffffffffffffffffffffffffffffffffffffff16141580156114185750600073ffffffffffffffffffffffffffffffffffffffff168573ffffffffffffffffffffffffffffffffffffffff1614155b80156114425750600e600085815260200190815260200160002060009054906101000a900460ff16155b15611479576040517fa24e573d00000000000000000000000000000000000000000000000000000000815260040160405180910390fd5b611484858585611e43565b9150509392505050565b600073ffffffffffffffffffffffffffffffffffffffff168273ffffffffffffffffffffffffffffffffffffffff16036115005760006040517f64a0ae920000000000000000000000000000000000000000000000000000000081526004016114f79190612ae0565b60405180910390fd5b600061150e838360006113a0565b9050600073ffffffffffffffffffffffffffffffffffffffff168173ffffffffffffffffffffffffffffffffffffffff16146115825760006040517f73c6ac6e0000000000000000000000000000000000000000000000000000000081526004016115799190612ae0565b60405180910390fd5b505050565b6000600b60009054906101000a900473ffffffffffffffffffffffffffffffffffffffff16905081600b60006101000a81548173ffffffffffffffffffffffffffffffffffffffff021916908373ffffffffffffffffffffffffffffffffffffffff1602179055508173ffffffffffffffffffffffffffffffffffffffff168173ffffffffffffffffffffffffffffffffffffffff167f8be0079c531659141344cd1fd0a4f28419497f9722a3daafe3b4186f6b6457e060405160405180910390a35050565b60006002600083815260200190815260200160002060009054906101000a900473ffffffffffffffffffffffffffffffffffffffff169050919050565b60008073ffffffffffffffffffffffffffffffffffffffff168373ffffffffffffffffffffffffffffffffffffffff161415801561174257508273ffffffffffffffffffffffffffffffffffffffff168473ffffffffffffffffffffffffffffffffffffffff1614806117035750611702848461103d565b5b8061174157508273ffffffffffffffffffffffffffffffffffffffff1661172983611266565b73ffffffffffffffffffffffffffffffffffffffff16145b5b90509392505050565b600061175a60008360006113a0565b9050600073ffffffffffffffffffffffffffffffffffffffff168173ffffffffffffffffffffffffffffffffffffffff16036117cd57816040517f7e2732890000000000000000000000000000000000000000000000000000000081526004016117c49190612d34565b60405180910390fd5b5050565b600073ffffffffffffffffffffffffffffffffffffffff168273ffffffffffffffffffffffffffffffffffffffff160361184257816040517f5b08ba180000000000000000000000000000000000000000000000000000000081526004016118399190612ae0565b60405180910390fd5b80600560008573ffffffffffffffffffffffffffffffffffffffff1673ffffffffffffffffffffffffffffffffffffffff16815260200190815260200160002060008473ffffffffffffffffffffffffffffffffffffffff1673ffffffffffffffffffffffffffffffffffffffff16815260200190815260200160002060006101000a81548160ff0219169083151502179055508173ffffffffffffffffffffffffffffffffffffffff168373ffffffffffffffffffffffffffffffffffffffff167f17307eab39ab6107e8899845ad3d59bd9653f200f220920489ca2b5937696c3183604051611933919061296f565b60405180910390a3505050565b60008373ffffffffffffffffffffffffffffffffffffffff163b1115611aea578273ffffffffffffffffffffffffffffffffffffffff1663150b7a02868685856040518563ffffffff1660e01b815260040161199f9493929190613619565b6020604051808303816000875af19250505080156119db57506040513d601f19601f820116820180604052508101906119d8919061367a565b60015b611a5f573d8060008114611a0b576040519150601f19603f3d011682016040523d82523d6000602084013e611a10565b606091505b506000815103611a5757836040517f64a0ae92000000000000000000000000000000000000000000000000000000008152600401611a4e9190612ae0565b60405180910390fd5b805181602001fd5b63150b7a0260e01b7bffffffffffffffffffffffffffffffffffffffffffffffffffffffff1916817bffffffffffffffffffffffffffffffffffffffffffffffffffffffff191614611ae857836040517f64a0ae92000000000000000000000000000000000000000000000000000000008152600401611adf9190612ae0565b60405180910390fd5b505b5050505050565b6060611afc826111de565b506000600a60008481526020019081526020016000208054611b1d90613156565b80601f0160208091040260200160405190810160405280929190818152602001828054611b4990613156565b8015611b965780601f10611b6b57610100808354040283529160200191611b96565b820191906000526020600020905b815481529060010190602001808311611b7957829003601f168201915b505050505090506000611ba7611f60565b90506000815103611bbc578192505050611bff565b600082511115611bf1578082604051602001611bd99291906136e3565b60405160208183030381529060405292505050611bff565b611bfa84611f77565b925050505b919050565b60007f780e9d63000000000000000000000000000000000000000000000000000000007bffffffffffffffffffffffffffffffffffffffffffffffffffffffff1916827bffffffffffffffffffffffffffffffffffffffffffffffffffffffff19161480611c775750611c7682611fe0565b5b9050919050565b8080611cb75750600073ffffffffffffffffffffffffffffffffffffffff168273ffffffffffffffffffffffffffffffffffffffff1614155b15611deb576000611cc7846111de565b9050600073ffffffffffffffffffffffffffffffffffffffff168373ffffffffffffffffffffffffffffffffffffffff1614158015611d3257508273ffffffffffffffffffffffffffffffffffffffff168173ffffffffffffffffffffffffffffffffffffffff1614155b8015611d455750611d43818461103d565b155b15611d8757826040517fa9fbf51f000000000000000000000000000000000000000000000000000000008152600401611d7e9190612ae0565b60405180910390fd5b8115611de957838573ffffffffffffffffffffffffffffffffffffffff168273ffffffffffffffffffffffffffffffffffffffff167f8c5be1e5ebec7d5bd14f71427d1e84f3dd0314c0f7b2291e5b200ac8c7c3b92560405160405180910390a45b505b836004600085815260200190815260200160002060006101000a81548173ffffffffffffffffffffffffffffffffffffffff021916908373ffffffffffffffffffffffffffffffffffffffff16021790555050505050565b600080611e518585856120c2565b9050600073ffffffffffffffffffffffffffffffffffffffff168173ffffffffffffffffffffffffffffffffffffffff1603611e9557611e90846122dc565b611ed4565b8473ffffffffffffffffffffffffffffffffffffffff168173ffffffffffffffffffffffffffffffffffffffff1614611ed357611ed28185612325565b5b5b600073ffffffffffffffffffffffffffffffffffffffff168573ffffffffffffffffffffffffffffffffffffffff1603611f1657611f1184612410565b611f55565b8473ffffffffffffffffffffffffffffffffffffffff168173ffffffffffffffffffffffffffffffffffffffff1614611f5457611f5385856124e1565b5b5b809150509392505050565b606060405180602001604052806000815250905090565b6060611f82826111de565b506000611f8d611f60565b90506000815111611fad5760405180602001604052806000815250611fd8565b80611fb78461256c565b604051602001611fc89291906136e3565b6040516020818303038152906040525b915050919050565b60007f80ac58cd000000000000000000000000000000000000000000000000000000007bffffffffffffffffffffffffffffffffffffffffffffffffffffffff1916827bffffffffffffffffffffffffffffffffffffffffffffffffffffffff191614806120ab57507f5b5e139f000000000000000000000000000000000000000000000000000000007bffffffffffffffffffffffffffffffffffffffffffffffffffffffff1916827bffffffffffffffffffffffffffffffffffffffffffffffffffffffff1916145b806120bb57506120ba8261263a565b5b9050919050565b6000806120ce8461164d565b9050600073ffffffffffffffffffffffffffffffffffffffff168373ffffffffffffffffffffffffffffffffffffffff16146121105761210f8184866126a4565b5b600073ffffffffffffffffffffffffffffffffffffffff168173ffffffffffffffffffffffffffffffffffffffff16146121a157612152600085600080611c7e565b6001600360008373ffffffffffffffffffffffffffffffffffffffff1673ffffffffffffffffffffffffffffffffffffffff168152602001908152602001600020600082825403925050819055505b600073ffffffffffffffffffffffffffffffffffffffff168573ffffffffffffffffffffffffffffffffffffffff1614612224576001600360008773ffffffffffffffffffffffffffffffffffffffff1673ffffffffffffffffffffffffffffffffffffffff168152602001908152602001600020600082825401925050819055505b846002600086815260200190815260200160002060006101000a81548173ffffffffffffffffffffffffffffffffffffffff021916908373ffffffffffffffffffffffffffffffffffffffff160217905550838573ffffffffffffffffffffffffffffffffffffffff168273ffffffffffffffffffffffffffffffffffffffff167fddf252ad1be2c89b69c2b068fc378daa952ba7f163c4a11628f55a4df523b3ef60405160405180910390a4809150509392505050565b6008805490506009600083815260200190815260200160002081905550600881908060018154018082558091505060019003906000526020600020016000909190919091505550565b600061233083610ac3565b90506000600760008481526020019081526020016000205490506000600660008673ffffffffffffffffffffffffffffffffffffffff1673ffffffffffffffffffffffffffffffffffffffff16815260200190815260200160002090508282146123dc5760008160008581526020019081526020016000205490508082600085815260200190815260200160002081905550826007600083815260200190815260200160002081905550505b6007600085815260200190815260200160002060009055806000848152602001908152602001600020600090555050505050565b600060016008805490506124249190613707565b9050600060096000848152602001908152602001600020549050600060088381548110612454576124536131e7565b5b906000526020600020015490508060088381548110612476576124756131e7565b5b9060005260206000200181905550816009600083815260200190815260200160002081905550600960008581526020019081526020016000206000905560088054806124c5576124c461373b565b5b6001900381819060005260206000200160009055905550505050565b600060016124ee84610ac3565b6124f89190613707565b905081600660008573ffffffffffffffffffffffffffffffffffffffff1673ffffffffffffffffffffffffffffffffffffffff168152602001908152602001600020600083815260200190815260200160002081905550806007600084815260200190815260200160002081905550505050565b60606000600161257b84612768565b01905060008167ffffffffffffffff81111561259a57612599612b9e565b5b6040519080825280601f01601f1916602001820160405280156125cc5781602001600182028036833780820191505090505b509050600082602001820190505b60011561262f578080600190039150507f3031323334353637383961626364656600000000000000000000000000000000600a86061a8153600a85816126235761262261376a565b5b049450600085036125da575b819350505050919050565b60007f01ffc9a7000000000000000000000000000000000000000000000000000000007bffffffffffffffffffffffffffffffffffffffffffffffffffffffff1916827bffffffffffffffffffffffffffffffffffffffffffffffffffffffff1916149050919050565b6126af83838361168a565b61276357600073ffffffffffffffffffffffffffffffffffffffff168373ffffffffffffffffffffffffffffffffffffffff160361272457806040517f7e27328900000000000000000000000000000000000000000000000000000000815260040161271b9190612d34565b60405180910390fd5b81816040517f177e802f00000000000000000000000000000000000000000000000000000000815260040161275a9291906131be565b60405180910390fd5b505050565b600080600090507a184f03e93ff9f4daa797ed6e38ed64bf6a1f01000000000000000083106127c6577a184f03e93ff9f4daa797ed6e38ed64bf6a1f01000000000000000083816127bc576127bb61376a565b5b0492506040810190505b6d04ee2d6d415b85acef81000000008310612803576d04ee2d6d415b85acef810000000083816127f9576127f861376a565b5b0492506020810190505b662386f26fc10000831061283257662386f26fc1000083816128285761282761376a565b5b0492506010810190505b6305f5e100831061285b576305f5e10083816128515761285061376a565b5b0492506008810190505b61271083106128805761271083816128765761287561376a565b5b0492506004810190505b606483106128a357606483816128995761289861376a565b5b0492506002810190505b600a83106128b2576001810190505b80915050919050565b6000604051905090565b600080fd5b600080fd5b60007fffffffff0000000000000000000000000000000000000000000000000000000082169050919050565b612904816128cf565b811461290f57600080fd5b50565b600081359050612921816128fb565b92915050565b60006020828403121561293d5761293c6128c5565b5b600061294b84828501612912565b91505092915050565b60008115159050919050565b61296981612954565b82525050565b60006020820190506129846000830184612960565b92915050565b600081519050919050565b600082825260208201905092915050565b60005b838110156129c45780820151818401526020810190506129a9565b60008484015250505050565b6000601f19601f8301169050919050565b60006129ec8261298a565b6129f68185612995565b9350612a068185602086016129a6565b612a0f816129d0565b840191505092915050565b60006020820190508181036000830152612a3481846129e1565b905092915050565b6000819050919050565b612a4f81612a3c565b8114612a5a57600080fd5b50565b600081359050612a6c81612a46565b92915050565b600060208284031215612a8857612a876128c5565b5b6000612a9684828501612a5d565b91505092915050565b600073ffffffffffffffffffffffffffffffffffffffff82169050919050565b6000612aca82612a9f565b9050919050565b612ada81612abf565b82525050565b6000602082019050612af56000830184612ad1565b92915050565b612b0481612abf565b8114612b0f57600080fd5b50565b600081359050612b2181612afb565b92915050565b60008060408385031215612b3e57612b3d6128c5565b5b6000612b4c85828601612b12565b9250506020612b5d85828601612a5d565b9150509250929050565b600060208284031215612b7d57612b7c6128c5565b5b6000612b8b84828501612b12565b91505092915050565b600080fd5b600080fd5b7f4e487b7100000000000000000000000000000000000000000000000000000000600052604160045260246000fd5b612bd6826129d0565b810181811067ffffffffffffffff82111715612bf557612bf4612b9e565b5b80604052505050565b6000612c086128bb565b9050612c148282612bcd565b919050565b600067ffffffffffffffff821115612c3457612c33612b9e565b5b612c3d826129d0565b9050602081019050919050565b82818337600083830152505050565b6000612c6c612c6784612c19565b612bfe565b905082815260208101848484011115612c8857612c87612b99565b5b612c93848285612c4a565b509392505050565b600082601f830112612cb057612caf612b94565b5b8135612cc0848260208601612c59565b91505092915050565b60008060408385031215612ce057612cdf6128c5565b5b6000612cee85828601612a5d565b925050602083013567ffffffffffffffff811115612d0f57612d0e6128ca565b5b612d1b85828601612c9b565b9150509250929050565b612d2e81612a3c565b82525050565b6000602082019050612d496000830184612d25565b92915050565b600080600060608486031215612d6857612d676128c5565b5b6000612d7686828701612b12565b9350506020612d8786828701612b12565b9250506040612d9886828701612a5d565b9150509250925092565b60008060408385031215612db957612db86128c5565b5b6000612dc785828601612b12565b925050602083013567ffffffffffffffff811115612de857612de76128ca565b5b612df485828601612c9b565b9150509250929050565b612e0781612954565b8114612e1257600080fd5b50565b600081359050612e2481612dfe565b92915050565b60008060408385031215612e4157612e406128c5565b5b6000612e4f85828601612b12565b9250506020612e6085828601612e15565b9150509250929050565b600067ffffffffffffffff821115612e8557612e84612b9e565b5b612e8e826129d0565b9050602081019050919050565b6000612eae612ea984612e6a565b612bfe565b905082815260208101848484011115612eca57612ec9612b99565b5b612ed5848285612c4a565b509392505050565b600082601f830112612ef257612ef1612b94565b5b8135612f02848260208601612e9b565b91505092915050565b60008060008060808587031215612f2557612f246128c5565b5b6000612f3387828801612b12565b9450506020612f4487828801612b12565b9350506040612f5587828801612a5d565b925050606085013567ffffffffffffffff811115612f7657612f756128ca565b5b612f8287828801612edd565b91505092959194509250565b60008060008060808587031215612fa857612fa76128c5565b5b6000612fb687828801612a5d565b945050602085013567ffffffffffffffff811115612fd757612fd66128ca565b5b612fe387828801612c9b565b9350506040612ff487828801612b12565b925050606085013567ffffffffffffffff811115613015576130146128ca565b5b61302187828801612c9b565b91505092959194509250565b60008060408385031215613044576130436128c5565b5b600061305285828601612a5d565b925050602061306385828601612e15565b9150509250929050565b60008060408385031215613084576130836128c5565b5b600061309285828601612b12565b92505060206130a385828601612b12565b9150509250929050565b6000819050919050565b60006130d26130cd6130c884612a9f565b6130ad565b612a9f565b9050919050565b60006130e4826130b7565b9050919050565b60006130f6826130d9565b9050919050565b613106816130eb565b82525050565b600060208201905061312160008301846130fd565b92915050565b7f4e487b7100000000000000000000000000000000000000000000000000000000600052602260045260246000fd5b6000600282049050600182168061316e57607f821691505b60208210810361318157613180613127565b5b50919050565b600060608201905061319c6000830186612ad1565b6131a96020830185612d25565b6131b66040830184612ad1565b949350505050565b60006040820190506131d36000830185612ad1565b6131e06020830184612d25565b9392505050565b7f4e487b7100000000000000000000000000000000000000000000000000000000600052603260045260246000fd5b7f4e487b7100000000000000000000000000000000000000000000000000000000600052601160045260246000fd5b600061325082612a3c565b915061325b83612a3c565b925082820190508082111561327357613272613216565b5b92915050565b60008151905061328881612dfe565b92915050565b6000602082840312156132a4576132a36128c5565b5b60006132b284828501613279565b91505092915050565b60006080820190506132d06000830187612d25565b81810360208301526132e281866129e1565b90506132f16040830185612ad1565b818103606083015261330381846129e1565b905095945050505050565b60008151905061331d81612a46565b92915050565b600060208284031215613339576133386128c5565b5b60006133478482850161330e565b91505092915050565b60008190508160005260206000209050919050565b60006020601f8301049050919050565b600082821b905092915050565b6000600883026133b27fffffffffffffffffffffffffffffffffffffffffffffffffffffffffffffffff82613375565b6133bc8683613375565b95508019841693508086168417925050509392505050565b60006133ef6133ea6133e584612a3c565b6130ad565b612a3c565b9050919050565b6000819050919050565b613409836133d4565b61341d613415826133f6565b848454613382565b825550505050565b600090565b613432613425565b61343d818484613400565b505050565b5b818110156134615761345660008261342a565b600181019050613443565b5050565b601f8211156134a65761347781613350565b61348084613365565b8101602085101561348f578190505b6134a361349b85613365565b830182613442565b50505b505050565b600082821c905092915050565b60006134c9600019846008026134ab565b1980831691505092915050565b60006134e283836134b8565b9150826002028217905092915050565b6134fb8261298a565b67ffffffffffffffff81111561351457613513612b9e565b5b61351e8254613156565b613529828285613465565b600060209050601f83116001811461355c576000841561354a578287015190505b61355485826134d6565b8655506135bc565b601f19841661356a86613350565b60005b828110156135925784890151825560018201915060208501945060208101905061356d565b868310156135af57848901516135ab601f8916826134b8565b8355505b6001600288020188555050505b505050505050565b600081519050919050565b600082825260208201905092915050565b60006135eb826135c4565b6135f581856135cf565b93506136058185602086016129a6565b61360e816129d0565b840191505092915050565b600060808201905061362e6000830187612ad1565b61363b6020830186612ad1565b6136486040830185612d25565b818103606083015261365a81846135e0565b905095945050505050565b600081519050613674816128fb565b92915050565b6000602082840312156136905761368f6128c5565b5b600061369e84828501613665565b91505092915050565b600081905092915050565b60006136bd8261298a565b6136c781856136a7565b93506136d78185602086016129a6565b80840191505092915050565b60006136ef82856136b2565b91506136fb82846136b2565b91508190509392505050565b600061371282612a3c565b915061371d83612a3c565b925082820390508181111561373557613734613216565b5b92915050565b7f4e487b7100000000000000000000000000000000000000000000000000000000600052603160045260246000fd5b7f4e487b7100000000000000000000000000000000000000000000000000000000600052601260045260246000fdfea2646970667358221220fe7ef3d337116bd5587535d3cf356f10a7940446fab314fc2a62e0ef6f62792a64736f6c634300081c0033",
  "linkReferences": {},
  "deployedLinkReferences": {}
}