{
  "_format": "hh-sol-artifact-1",
  "contractName": "ResumeNFT",
  "sourceName": "contracts/ResumeNFT.sol",
  "abi": [
    {
      "inputs": [
        {
          "internalType": "address",
          "name": "_verificationManager",
          "type": "address"
        },
        {
          "internalType": "address",
          "name": "initialOwner",
          "type": "address"
        }
      ],
      "stateMutability": "nonpayable",
      "type": "constructor"
    },
    {
      "inputs": [],
      "name": "ERC721EnumerableForbiddenBatchMint",
      "type": "error"
    },
    {
      "inputs": [
        {
          "internalType": "address",
          "name": "sender",
          "type": "address"
        },
        {
          "internalType": "uint256",
          "name": "tokenId",
          "type": "uint256"
        },
        {
          "internalType": "address",
          "name": "owner",
          "type": "address"
        }
      ],
      "name": "ERC721IncorrectOwner",
      "type": "error"
    },
    {
      "inputs": [
        {
          "internalType": "address",
          "name": "operator",
          "type": "address"
        },
        {
          "internalType": "uint256",
          "name": "tokenId",
          "type": "uint256"
        }
      ],
      "name": "ERC721InsufficientApproval",
      "type": "error"
    },
    {
      "inputs": [
        {
          "internalType": "address",
          "name": "approver",
          "type": "address"
        }
      ],
      "name": "ERC721InvalidApprover",
      "type": "error"
    },
    {
      "inputs": [
        {
          "internalType": "address",
          "name": "operator",
          "type": "address"
        }
      ],
      "name": "ERC721InvalidOperator",
      "type": "error"
    },
    {
      "inputs": [
        {
          "internalType": "address",
          "name": "owner",
          "type": "address"
        }
      ],
      "name": "ERC721InvalidOwner",
      "type": "error"
    },
    {
      "inputs": [
        {
          "internalType": "address",
          "name": "receiver",
          "type": "address"
        }
      ],
      "name": "ERC721InvalidReceiver",
      "type": "error"
    },
    {
      "inputs": [
        {
          "internalType": "address",
          "name": "sender",
          "type": "address"
        }
      ],
      "name": "ERC721InvalidSender",
      "type": "error"
    },
    {
      "inputs": [
        {
          "internalType": "uint256",
          "name": "tokenId",
          "type": "uint256"
        }
      ],
      "name": "ERC721NonexistentToken",
      "type": "error"
    },
    {
      "inputs": [
        {
          "internalType": "address",
          "name": "owner",
          "type": "address"
        },
        {
          "internalType": "uint256",
          "name": "index",
          "type": "uint256"
        }
      ],
      "name": "ERC721OutOfBoundsIndex",
      "type": "error"
    },
    {
      "inputs": [],
      "name": "InvalidEntryId",
      "type": "error"
    },
    {
      "inputs": [],
      "name": "InvalidTokenId",
      "type": "error"
    },
    {
      "inputs": [],
      "name": "NotAuthorized",
      "type": "error"
    },
    {
      "inputs": [],
      "name": "NotOwner",
      "type": "error"
    },
    {
      "inputs": [],
      "name": "OrganizationNotVerified",
      "type": "error"
    },
    {
      "inputs": [
        {
          "internalType": "address",
          "name": "owner",
          "type": "address"
        }
      ],
      "name": "OwnableInvalidOwner",
      "type": "error"
    },
    {
      "inputs": [
        {
          "internalType": "address",
          "name": "account",
          "type": "address"
        }
      ],
      "name": "OwnableUnauthorizedAccount",
      "type": "error"
    },
    {
      "inputs": [],
      "name": "TransferDisabled",
      "type": "error"
    },
    {
      "anonymous": false,
      "inputs": [
        {
          "indexed": true,
          "internalType": "address",
          "name": "owner",
          "type": "address"
        },
        {
          "indexed": true,
          "internalType": "address",
          "name": "approved",
          "type": "address"
        },
        {
          "indexed": true,
          "internalType": "uint256",
          "name": "tokenId",
          "type": "uint256"
        }
      ],
      "name": "Approval",
      "type": "event"
    },
    {
      "anonymous": false,
      "inputs": [
        {
          "indexed": true,
          "internalType": "address",
          "name": "owner",
          "type": "address"
        },
        {
          "indexed": true,
          "internalType": "address",
          "name": "operator",
          "type": "address"
        },
        {
          "indexed": false,
          "internalType": "bool",
          "name": "approved",
          "type": "bool"
        }
      ],
      "name": "ApprovalForAll",
      "type": "event"
    },
    {
      "anonymous": false,
      "inputs": [
        {
          "indexed": false,
          "internalType": "uint256",
          "name": "_fromTokenId",
          "type": "uint256"
        },
        {
          "indexed": false,
          "internalType": "uint256",
          "name": "_toTokenId",
          "type": "uint256"
        }
      ],
      "name": "BatchMetadataUpdate",
      "type": "event"
    },
    {
      "anonymous": false,
      "inputs": [
        {
          "indexed": false,
          "internalType": "uint256",
          "name": "_tokenId",
          "type": "uint256"
        }
      ],
      "name": "MetadataUpdate",
      "type": "event"
    },
    {
      "anonymous": false,
      "inputs": [
        {
          "indexed": true,
          "internalType": "address",
          "name": "previousOwner",
          "type": "address"
        },
        {
          "indexed": true,
          "internalType": "address",
          "name": "newOwner",
          "type": "address"
        }
      ],
      "name": "OwnershipTransferred",
      "type": "event"
    },
    {
      "anonymous": false,
      "inputs": [
        {
          "indexed": true,
          "internalType": "uint256",
          "name": "tokenId",
          "type": "uint256"
        }
      ],
      "name": "ResumeBurned",
      "type": "event"
    },
    {
      "anonymous": false,
      "inputs": [
        {
          "indexed": true,
          "internalType": "address",
          "name": "recipient",
          "type": "address"
        },
        {
          "indexed": false,
          "internalType": "uint256",
          "name": "tokenId",
          "type": "uint256"
        }
      ],
      "name": "ResumeMinted",
      "type": "event"
    },
    {
      "anonymous": false,
      "inputs": [
        {
          "indexed": true,
          "internalType": "uint256",
          "name": "tokenId",
          "type": "uint256"
        },
        {
          "indexed": false,
          "internalType": "string",
          "name": "newTokenURI",
          "type": "string"
        }
      ],
      "name": "ResumeUpdated",
      "type": "event"
    },
    {
      "anonymous": false,
      "inputs": [
        {
          "indexed": true,
          "internalType": "address",
          "name": "from",
          "type": "address"
        },
        {
          "indexed": true,
          "internalType": "address",
          "name": "to",
          "type": "address"
        },
        {
          "indexed": true,
          "internalType": "uint256",
          "name": "tokenId",
          "type": "uint256"
        }
      ],
      "name": "Transfer",
      "type": "event"
    },
    {
      "anonymous": false,
      "inputs": [
        {
          "indexed": true,
          "internalType": "uint256",
          "name": "tokenId",
          "type": "uint256"
        },
        {
          "indexed": false,
          "internalType": "bool",
          "name": "isTransferable",
          "type": "bool"
        }
      ],
      "name": "TransferabilityChanged",
      "type": "event"
    },
    {
      "inputs": [
        {
          "internalType": "address",
          "name": "to",
          "type": "address"
        },
        {
          "internalType": "uint256",
          "name": "tokenId",
          "type": "uint256"
        }
      ],
      "name": "approve",
      "outputs": [],
      "stateMutability": "nonpayable",
      "type": "function"
    },
    {
      "inputs": [
        {
          "internalType": "address",
          "name": "owner",
          "type": "address"
        }
      ],
      "name": "balanceOf",
      "outputs": [
        {
          "internalType": "uint256",
          "name": "",
          "type": "uint256"
        }
      ],
      "stateMutability": "view",
      "type": "function"
    },
    {
      "inputs": [
        {
          "internalType": "uint256",
          "name": "tokenId",
          "type": "uint256"
        }
      ],
      "name": "burnResume",
      "outputs": [],
      "stateMutability": "nonpayable",
      "type": "function"
    },
    {
      "inputs": [
        {
          "internalType": "uint256",
          "name": "tokenId",
          "type": "uint256"
        }
      ],
      "name": "getApproved",
      "outputs": [
        {
          "internalType": "address",
          "name": "",
          "type": "address"
        }
      ],
      "stateMutability": "view",
      "type": "function"
    },
    {
      "inputs": [
        {
          "internalType": "address",
          "name": "owner",
          "type": "address"
        },
        {
          "internalType": "address",
          "name": "operator",
          "type": "address"
        }
      ],
      "name": "isApprovedForAll",
      "outputs": [
        {
          "internalType": "bool",
          "name": "",
          "type": "bool"
        }
      ],
      "stateMutability": "view",
      "type": "function"
    },
    {
      "inputs": [
        {
          "internalType": "uint256",
          "name": "tokenId",
          "type": "uint256"
        }
      ],
      "name": "isTransferable",
      "outputs": [
        {
          "internalType": "bool",
          "name": "",
          "type": "bool"
        }
      ],
      "stateMutability": "view",
      "type": "function"
    },
    {
      "inputs": [
        {
          "internalType": "address",
          "name": "recipient",
          "type": "address"
        },
        {
          "internalType": "string",
          "name": "metadataURI",
          "type": "string"
        }
      ],
      "name": "mintResume",
      "outputs": [
        {
          "internalType": "uint256",
          "name": "",
          "type": "uint256"
        }
      ],
      "stateMutability": "nonpayable",
      "type": "function"
    },
    {
      "inputs": [],
      "name": "name",
      "outputs": [
        {
          "internalType": "string",
          "name": "",
          "type": "string"
        }
      ],
      "stateMutability": "view",
      "type": "function"
    },
    {
      "inputs": [],
      "name": "owner",
      "outputs": [
        {
          "internalType": "address",
          "name": "",
          "type": "address"
        }
      ],
      "stateMutability": "view",
      "type": "function"
    },
    {
      "inputs": [
        {
          "internalType": "uint256",
          "name": "tokenId",
          "type": "uint256"
        }
      ],
      "name": "ownerOf",
      "outputs": [
        {
          "internalType": "address",
          "name": "",
          "type": "address"
        }
      ],
      "stateMutability": "view",
      "type": "function"
    },
    {
      "inputs": [],
      "name": "renounceOwnership",
      "outputs": [],
      "stateMutability": "nonpayable",
      "type": "function"
    },
    {
      "inputs": [
        {
          "internalType": "uint256",
          "name": "tokenId",
          "type": "uint256"
        },
        {
          "internalType": "string",
          "name": "entryId",
          "type": "string"
        },
        {
          "internalType": "address",
          "name": "organization",
          "type": "address"
        },
        {
          "internalType": "string",
          "name": "details",
          "type": "string"
        }
      ],
      "name": "requestVerification",
      "outputs": [
        {
          "internalType": "uint256",
          "name": "",
          "type": "uint256"
        }
      ],
      "stateMutability": "nonpayable",
      "type": "function"
    },
    {
      "inputs": [
        {
          "internalType": "address",
          "name": "from",
          "type": "address"
        },
        {
          "internalType": "address",
          "name": "to",
          "type": "address"
        },
        {
          "internalType": "uint256",
          "name": "tokenId",
          "type": "uint256"
        }
      ],
      "name": "safeTransferFrom",
      "outputs": [],
      "stateMutability": "nonpayable",
      "type": "function"
    },
    {
      "inputs": [
        {
          "internalType": "address",
          "name": "from",
          "type": "address"
        },
        {
          "internalType": "address",
          "name": "to",
          "type": "address"
        },
        {
          "internalType": "uint256",
          "name": "tokenId",
          "type": "uint256"
        },
        {
          "internalType": "bytes",
          "name": "data",
          "type": "bytes"
        }
      ],
      "name": "safeTransferFrom",
      "outputs": [],
      "stateMutability": "nonpayable",
      "type": "function"
    },
    {
      "inputs": [
        {
          "internalType": "address",
          "name": "operator",
          "type": "address"
        },
        {
          "internalType": "bool",
          "name": "approved",
          "type": "bool"
        }
      ],
      "name": "setApprovalForAll",
      "outputs": [],
      "stateMutability": "nonpayable",
      "type": "function"
    },
    {
      "inputs": [
        {
          "internalType": "uint256",
          "name": "tokenId",
          "type": "uint256"
        },
        {
          "internalType": "bool",
          "name": "transferable_",
          "type": "bool"
        }
      ],
      "name": "setTransferable",
      "outputs": [],
      "stateMutability": "nonpayable",
      "type": "function"
    },
    {
      "inputs": [
        {
          "internalType": "bytes4",
          "name": "interfaceId",
          "type": "bytes4"
        }
      ],
      "name": "supportsInterface",
      "outputs": [
        {
          "internalType": "bool",
          "name": "",
          "type": "bool"
        }
      ],
      "stateMutability": "view",
      "type": "function"
    },
    {
      "inputs": [],
      "name": "symbol",
      "outputs": [
        {
          "internalType": "string",
          "name": "",
          "type": "string"
        }
      ],
      "stateMutability": "view",
      "type": "function"
    },
    {
      "inputs": [
        {
          "internalType": "uint256",
          "name": "index",
          "type": "uint256"
        }
      ],
      "name": "tokenByIndex",
      "outputs": [
        {
          "internalType": "uint256",
          "name": "",
          "type": "uint256"
        }
      ],
      "stateMutability": "view",
      "type": "function"
    },
    {
      "inputs": [
        {
          "internalType": "address",
          "name": "owner",
          "type": "address"
        },
        {
          "internalType": "uint256",
          "name": "index",
          "type": "uint256"
        }
      ],
      "name": "tokenOfOwnerByIndex",
      "outputs": [
        {
          "internalType": "uint256",
          "name": "",
          "type": "uint256"
        }
      ],
      "stateMutability": "view",
      "type": "function"
    },
    {
      "inputs": [
        {
          "internalType": "uint256",
          "name": "tokenId",
          "type": "uint256"
        }
      ],
      "name": "tokenURI",
      "outputs": [
        {
          "internalType": "string",
          "name": "",
          "type": "string"
        }
      ],
      "stateMutability": "view",
      "type": "function"
    },
    {
      "inputs": [],
      "name": "totalSupply",
      "outputs": [
        {
          "internalType": "uint256",
          "name": "",
          "type": "uint256"
        }
      ],
      "stateMutability": "view",
      "type": "function"
    },
    {
      "inputs": [
        {
          "internalType": "address",
          "name": "from",
          "type": "address"
        },
        {
          "internalType": "address",
          "name": "to",
          "type": "address"
        },
        {
          "internalType": "uint256",
          "name": "tokenId",
          "type": "uint256"
        }
      ],
      "name": "transferFrom",
      "outputs": [],
      "stateMutability": "nonpayable",
      "type": "function"
    },
    {
      "inputs": [
        {
          "internalType": "address",
          "name": "newOwner",
          "type": "address"
        }
      ],
      "name": "transferOwnership",
      "outputs": [],
      "stateMutability": "nonpayable",
      "type": "function"
    },
    {
      "inputs": [
        {
          "internalType": "uint256",
          "name": "tokenId",
          "type": "uint256"
        },
        {
          "internalType": "string",
          "name": "newTokenURI",
          "type": "string"
        }
      ],
      "name": "updateResumeURI",
      "outputs": [],
      "stateMutability": "nonpayable",
      "type": "function"
    },
    {
      "inputs": [
        {
          "internalType": "address",
          "name": "newManager",
          "type": "address"
        }
      ],
      "name": "updateVerificationManager",
      "outputs": [],
      "stateMutability": "nonpayable",
      "type": "function"
    },
    {
      "inputs": [],
      "name": "verificationManager",
      "outputs": [
        {
          "internalType": "contract VerificationManager",
          "name": "",
          "type": "address"
        }
      ],
      "stateMutability": "view",
      "type": "function"
    }
  ],
  "bytecode": "0x608060405234801561001057600080fd5b50604051613dc1380380613dc1833981810160405281019061003291906102b4565b806040518060400160405280600981526020017f526573756d654e465400000000000000000000000000000000000000000000008152506040518060400160405280600481526020017f524e46540000000000000000000000000000000000000000000000000000000081525081600090816100ae9190610544565b5080600190816100be9190610544565b505050600073ffffffffffffffffffffffffffffffffffffffff168173ffffffffffffffffffffffffffffffffffffffff16036101335760006040517f1e4fbdf700000000000000000000000000000000000000000000000000000000815260040161012a9190610625565b60405180910390fd5b6101428161018b60201b60201c565b5081600d60006101000a81548173ffffffffffffffffffffffffffffffffffffffff021916908373ffffffffffffffffffffffffffffffffffffffff1602179055505050610640565b6000600b60009054906101000a900473ffffffffffffffffffffffffffffffffffffffff16905081600b60006101000a81548173ffffffffffffffffffffffffffffffffffffffff021916908373ffffffffffffffffffffffffffffffffffffffff1602179055508173ffffffffffffffffffffffffffffffffffffffff168173ffffffffffffffffffffffffffffffffffffffff167f8be0079c531659141344cd1fd0a4f28419497f9722a3daafe3b4186f6b6457e060405160405180910390a35050565b600080fd5b600073ffffffffffffffffffffffffffffffffffffffff82169050919050565b600061028182610256565b9050919050565b61029181610276565b811461029c57600080fd5b50565b6000815190506102ae81610288565b92915050565b600080604083850312156102cb576102ca610251565b5b60006102d98582860161029f565b92505060206102ea8582860161029f565b9150509250929050565b600081519050919050565b7f4e487b7100000000000000000000000000000000000000000000000000000000600052604160045260246000fd5b7f4e487b7100000000000000000000000000000000000000000000000000000000600052602260045260246000fd5b6000600282049050600182168061037557607f821691505b6020821081036103885761038761032e565b5b50919050565b60008190508160005260206000209050919050565b60006020601f8301049050919050565b600082821b905092915050565b6000600883026103f07fffffffffffffffffffffffffffffffffffffffffffffffffffffffffffffffff826103b3565b6103fa86836103b3565b95508019841693508086168417925050509392505050565b6000819050919050565b6000819050919050565b600061044161043c61043784610412565b61041c565b610412565b9050919050565b6000819050919050565b61045b83610426565b61046f61046782610448565b8484546103c0565b825550505050565b600090565b610484610477565b61048f818484610452565b505050565b5b818110156104b3576104a860008261047c565b600181019050610495565b5050565b601f8211156104f8576104c98161038e565b6104d2846103a3565b810160208510156104e1578190505b6104f56104ed856103a3565b830182610494565b50505b505050565b600082821c905092915050565b600061051b600019846008026104fd565b1980831691505092915050565b6000610534838361050a565b9150826002028217905092915050565b61054d826102f4565b67ffffffffffffffff811115610566576105656102ff565b5b610570825461035d565b61057b8282856104b7565b600060209050601f8311600181146105ae576000841561059c578287015190505b6105a68582610528565b86555061060e565b601f1984166105bc8661038e565b60005b828110156105e4578489015182556001820191506020850194506020810190506105bf565b8683101561060157848901516105fd601f89168261050a565b8355505b6001600288020188555050505b505050505050565b61061f81610276565b82525050565b600060208201905061063a6000830184610616565b92915050565b6137728061064f6000396000f3fe608060405234801561001057600080fd5b50600436106101a95760003560e01c806370a08231116100f9578063b88d4fde11610097578063dfe28fbf11610071578063dfe28fbf146104f0578063e985e9c51461050c578063f2fde38b1461053c578063f8a8fbdb14610558576101a9565b8063b88d4fde14610474578063c47b360914610490578063c87b56dd146104c0576101a9565b806395d89b41116100d357806395d89b41146103ee57806399bdd4ec1461040c578063a22cb46514610428578063b256456914610444576101a9565b806370a0823114610396578063715018a6146103c65780638da5cb5b146103d0576101a9565b806318160ddd1161016657806342842e0e1161014057806342842e0e146102ea5780634f6ccce7146103065780636352211e1461033657806368cc856514610366576101a9565b806318160ddd1461028057806323b872dd1461029e5780632f745c59146102ba576101a9565b806301ffc9a7146101ae57806306fdde03146101de578063081812fc146101fc578063095ea7b31461022c5780630b1f2774146102485780630f47394414610264575b600080fd5b6101c860048036038101906101c391906128ca565b610576565b6040516101d59190612912565b60405180910390f35b6101e6610588565b6040516101f391906129bd565b60405180910390f35b61021660048036038101906102119190612a15565b61061a565b6040516102239190612a83565b60405180910390f35b61024660048036038101906102419190612aca565b610636565b005b610262600480360381019061025d9190612b0a565b61064c565b005b61027e60048036038101906102799190612c6c565b610698565b005b61028861074b565b6040516102959190612cd7565b60405180910390f35b6102b860048036038101906102b39190612cf2565b610758565b005b6102d460048036038101906102cf9190612aca565b61085a565b6040516102e19190612cd7565b60405180910390f35b61030460048036038101906102ff9190612cf2565b610903565b005b610320600480360381019061031b9190612a15565b610923565b60405161032d9190612cd7565b60405180910390f35b610350600480360381019061034b9190612a15565b610999565b60405161035d9190612a83565b60405180910390f35b610380600480360381019061037b9190612d45565b6109ab565b60405161038d9190612cd7565b60405180910390f35b6103b060048036038101906103ab9190612b0a565b610a66565b6040516103bd9190612cd7565b60405180910390f35b6103ce610b20565b005b6103d8610b34565b6040516103e59190612a83565b60405180910390f35b6103f6610b5e565b60405161040391906129bd565b60405180910390f35b61042660048036038101906104219190612a15565b610bf0565b005b610442600480360381019061043d9190612dcd565b610c95565b005b61045e60048036038101906104599190612a15565b610cab565b60405161046b9190612912565b60405180910390f35b61048e60048036038101906104899190612eae565b610cd5565b005b6104aa60048036038101906104a59190612f31565b610cfa565b6040516104b79190612cd7565b60405180910390f35b6104da60048036038101906104d59190612a15565b610f5f565b6040516104e791906129bd565b60405180910390f35b61050a60048036038101906105059190612fd0565b610f71565b005b61052660048036038101906105219190613010565b610fe0565b6040516105339190612912565b60405180910390f35b61055660048036038101906105519190612b0a565b611074565b005b6105606110fa565b60405161056d91906130af565b60405180910390f35b600061058182611120565b9050919050565b606060008054610597906130f9565b80601f01602080910402602001604051908101604052809291908181526020018280546105c3906130f9565b80156106105780601f106105e557610100808354040283529160200191610610565b820191906000526020600020905b8154815290600101906020018083116105f357829003601f168201915b5050505050905090565b600061062582611181565b5061062f82611209565b9050919050565b6106488282610643611246565b61124e565b5050565b610654611260565b80600d60006101000a81548173ffffffffffffffffffffffffffffffffffffffff021916908373ffffffffffffffffffffffffffffffffffffffff16021790555050565b3373ffffffffffffffffffffffffffffffffffffffff166106b883610999565b73ffffffffffffffffffffffffffffffffffffffff1614610705576040517f30cd747100000000000000000000000000000000000000000000000000000000815260040160405180910390fd5b61070f82826112e7565b817f05813f77eccf0a956da709cfd571af5f424e4ce0bc9612d08a28dcc2776d408e8260405161073f91906129bd565b60405180910390a25050565b6000600880549050905090565b600073ffffffffffffffffffffffffffffffffffffffff168273ffffffffffffffffffffffffffffffffffffffff16036107ca5760006040517f64a0ae920000000000000000000000000000000000000000000000000000000081526004016107c19190612a83565b60405180910390fd5b60006107de83836107d9611246565b611343565b90508373ffffffffffffffffffffffffffffffffffffffff168173ffffffffffffffffffffffffffffffffffffffff1614610854578382826040517f64283d7b00000000000000000000000000000000000000000000000000000000815260040161084b9392919061312a565b60405180910390fd5b50505050565b600061086583610a66565b82106108aa5782826040517fa57d13dc0000000000000000000000000000000000000000000000000000000081526004016108a1929190613161565b60405180910390fd5b600660008473ffffffffffffffffffffffffffffffffffffffff1673ffffffffffffffffffffffffffffffffffffffff168152602001908152602001600020600083815260200190815260200160002054905092915050565b61091e83838360405180602001604052806000815250610cd5565b505050565b600061092d61074b565b8210610973576000826040517fa57d13dc00000000000000000000000000000000000000000000000000000000815260040161096a929190613161565b60405180910390fd5b600882815481106109875761098661318a565b5b90600052602060002001549050919050565b60006109a482611181565b9050919050565b60006001600c60008282546109c091906131e8565b925050819055506000600c5490506109d88482611431565b6109e281846112e7565b6000600e600083815260200190815260200160002060006101000a81548160ff0219169083151502179055508373ffffffffffffffffffffffffffffffffffffffff167f34ad0fa11356c78fe0175f4ac7e59b4bbbfc0c9b461ca06a60dfbb48d943dc6382604051610a549190612cd7565b60405180910390a28091505092915050565b60008073ffffffffffffffffffffffffffffffffffffffff168273ffffffffffffffffffffffffffffffffffffffff1603610ad95760006040517f89c62b64000000000000000000000000000000000000000000000000000000008152600401610ad09190612a83565b60405180910390fd5b600360008373ffffffffffffffffffffffffffffffffffffffff1673ffffffffffffffffffffffffffffffffffffffff168152602001908152602001600020549050919050565b610b28611260565b610b32600061152a565b565b6000600b60009054906101000a900473ffffffffffffffffffffffffffffffffffffffff16905090565b606060018054610b6d906130f9565b80601f0160208091040260200160405190810160405280929190818152602001828054610b99906130f9565b8015610be65780601f10610bbb57610100808354040283529160200191610be6565b820191906000526020600020905b815481529060010190602001808311610bc957829003601f168201915b5050505050905090565b610c03610bfc826115f0565b338361162d565b610c39576040517fea8e4eb500000000000000000000000000000000000000000000000000000000815260040160405180910390fd5b610c42816116ee565b600e600082815260200190815260200160002060006101000a81549060ff0219169055807f36ea7415e26340b5571a567474342f4391e759c97664f72dc93d46edfaf6bd9760405160405180910390a250565b610ca7610ca0611246565b8383611774565b5050565b6000600e600083815260200190815260200160002060009054906101000a900460ff169050919050565b610ce0848484610758565b610cf4610ceb611246565b858585856118e3565b50505050565b60003373ffffffffffffffffffffffffffffffffffffffff16610d1c86610999565b73ffffffffffffffffffffffffffffffffffffffff1614610d69576040517f30cd747100000000000000000000000000000000000000000000000000000000815260040160405180910390fd5b600d60009054906101000a900473ffffffffffffffffffffffffffffffffffffffff1673ffffffffffffffffffffffffffffffffffffffff16630289187c846040518263ffffffff1660e01b8152600401610dc49190612a83565b602060405180830381865afa158015610de1573d6000803e3d6000fd5b505050506040513d601f19601f82011682018060405250810190610e059190613231565b610e3b576040517fd1a90b3f00000000000000000000000000000000000000000000000000000000815260040160405180910390fd5b6000845103610e76576040517f549b6a4c00000000000000000000000000000000000000000000000000000000815260040160405180910390fd5b6000825103610eb1576040517f549b6a4c00000000000000000000000000000000000000000000000000000000815260040160405180910390fd5b600d60009054906101000a900473ffffffffffffffffffffffffffffffffffffffff1673ffffffffffffffffffffffffffffffffffffffff1663724905d6868686866040518563ffffffff1660e01b8152600401610f12949392919061325e565b6020604051808303816000875af1158015610f31573d6000803e3d6000fd5b505050506040513d601f19601f82011682018060405250810190610f5591906132c6565b9050949350505050565b6060610f6a82611a94565b9050919050565b610f79611260565b80600e600084815260200190815260200160002060006101000a81548160ff021916908315150217905550817f2eab018bea08c2af89573dffdb6eb11287960920a6196c75324e7691330fc93082604051610fd49190612912565b60405180910390a25050565b6000600560008473ffffffffffffffffffffffffffffffffffffffff1673ffffffffffffffffffffffffffffffffffffffff16815260200190815260200160002060008373ffffffffffffffffffffffffffffffffffffffff1673ffffffffffffffffffffffffffffffffffffffff16815260200190815260200160002060009054906101000a900460ff16905092915050565b61107c611260565b600073ffffffffffffffffffffffffffffffffffffffff168173ffffffffffffffffffffffffffffffffffffffff16036110ee5760006040517f1e4fbdf70000000000000000000000000000000000000000000000000000000081526004016110e59190612a83565b60405180910390fd5b6110f78161152a565b50565b600d60009054906101000a900473ffffffffffffffffffffffffffffffffffffffff1681565b6000634906490660e01b7bffffffffffffffffffffffffffffffffffffffffffffffffffffffff1916827bffffffffffffffffffffffffffffffffffffffffffffffffffffffff1916148061117a575061117982611ba7565b5b9050919050565b60008061118d836115f0565b9050600073ffffffffffffffffffffffffffffffffffffffff168173ffffffffffffffffffffffffffffffffffffffff160361120057826040517f7e2732890000000000000000000000000000000000000000000000000000000081526004016111f79190612cd7565b60405180910390fd5b80915050919050565b60006004600083815260200190815260200160002060009054906101000a900473ffffffffffffffffffffffffffffffffffffffff169050919050565b600033905090565b61125b8383836001611c21565b505050565b611268611246565b73ffffffffffffffffffffffffffffffffffffffff16611286610b34565b73ffffffffffffffffffffffffffffffffffffffff16146112e5576112a9611246565b6040517f118cdaa70000000000000000000000000000000000000000000000000000000081526004016112dc9190612a83565b60405180910390fd5b565b80600a600084815260200190815260200160002090816113079190613495565b507ff8e1a15aba9398e019f0b49df1a4fde98ee17ae345cb5f6b5e2c27f5033e8ce7826040516113379190612cd7565b60405180910390a15050565b60008061134f846115f0565b9050600073ffffffffffffffffffffffffffffffffffffffff168173ffffffffffffffffffffffffffffffffffffffff16141580156113bb5750600073ffffffffffffffffffffffffffffffffffffffff168573ffffffffffffffffffffffffffffffffffffffff1614155b80156113e55750600e600085815260200190815260200160002060009054906101000a900460ff16155b1561141c576040517fa24e573d00000000000000000000000000000000000000000000000000000000815260040160405180910390fd5b611427858585611de6565b9150509392505050565b600073ffffffffffffffffffffffffffffffffffffffff168273ffffffffffffffffffffffffffffffffffffffff16036114a35760006040517f64a0ae9200000000000000000000000000000000000000000000000000000000815260040161149a9190612a83565b60405180910390fd5b60006114b183836000611343565b9050600073ffffffffffffffffffffffffffffffffffffffff168173ffffffffffffffffffffffffffffffffffffffff16146115255760006040517f73c6ac6e00000000000000000000000000000000000000000000000000000000815260040161151c9190612a83565b60405180910390fd5b505050565b6000600b60009054906101000a900473ffffffffffffffffffffffffffffffffffffffff16905081600b60006101000a81548173ffffffffffffffffffffffffffffffffffffffff021916908373ffffffffffffffffffffffffffffffffffffffff1602179055508173ffffffffffffffffffffffffffffffffffffffff168173ffffffffffffffffffffffffffffffffffffffff167f8be0079c531659141344cd1fd0a4f28419497f9722a3daafe3b4186f6b6457e060405160405180910390a35050565b60006002600083815260200190815260200160002060009054906101000a900473ffffffffffffffffffffffffffffffffffffffff169050919050565b60008073ffffffffffffffffffffffffffffffffffffffff168373ffffffffffffffffffffffffffffffffffffffff16141580156116e557508273ffffffffffffffffffffffffffffffffffffffff168473ffffffffffffffffffffffffffffffffffffffff1614806116a657506116a58484610fe0565b5b806116e457508273ffffffffffffffffffffffffffffffffffffffff166116cc83611209565b73ffffffffffffffffffffffffffffffffffffffff16145b5b90509392505050565b60006116fd6000836000611343565b9050600073ffffffffffffffffffffffffffffffffffffffff168173ffffffffffffffffffffffffffffffffffffffff160361177057816040517f7e2732890000000000000000000000000000000000000000000000000000000081526004016117679190612cd7565b60405180910390fd5b5050565b600073ffffffffffffffffffffffffffffffffffffffff168273ffffffffffffffffffffffffffffffffffffffff16036117e557816040517f5b08ba180000000000000000000000000000000000000000000000000000000081526004016117dc9190612a83565b60405180910390fd5b80600560008573ffffffffffffffffffffffffffffffffffffffff1673ffffffffffffffffffffffffffffffffffffffff16815260200190815260200160002060008473ffffffffffffffffffffffffffffffffffffffff1673ffffffffffffffffffffffffffffffffffffffff16815260200190815260200160002060006101000a81548160ff0219169083151502179055508173ffffffffffffffffffffffffffffffffffffffff168373ffffffffffffffffffffffffffffffffffffffff167f17307eab39ab6107e8899845ad3d59bd9653f200f220920489ca2b5937696c31836040516118d69190612912565b60405180910390a3505050565b60008373ffffffffffffffffffffffffffffffffffffffff163b1115611a8d578273ffffffffffffffffffffffffffffffffffffffff1663150b7a02868685856040518563ffffffff1660e01b815260040161194294939291906135bc565b6020604051808303816000875af192505050801561197e57506040513d601f19601f8201168201806040525081019061197b919061361d565b60015b611a02573d80600081146119ae576040519150601f19603f3d011682016040523d82523d6000602084013e6119b3565b606091505b5060008151036119fa57836040517f64a0ae920000000000000000000000000000000000000000000000000000000081526004016119f19190612a83565b60405180910390fd5b805181602001fd5b63150b7a0260e01b7bffffffffffffffffffffffffffffffffffffffffffffffffffffffff1916817bffffffffffffffffffffffffffffffffffffffffffffffffffffffff191614611a8b57836040517f64a0ae92000000000000000000000000000000000000000000000000000000008152600401611a829190612a83565b60405180910390fd5b505b5050505050565b6060611a9f82611181565b506000600a60008481526020019081526020016000208054611ac0906130f9565b80601f0160208091040260200160405190810160405280929190818152602001828054611aec906130f9565b8015611b395780601f10611b0e57610100808354040283529160200191611b39565b820191906000526020600020905b815481529060010190602001808311611b1c57829003601f168201915b505050505090506000611b4a611f03565b90506000815103611b5f578192505050611ba2565b600082511115611b94578082604051602001611b7c929190613686565b60405160208183030381529060405292505050611ba2565b611b9d84611f1a565b925050505b919050565b60007f780e9d63000000000000000000000000000000000000000000000000000000007bffffffffffffffffffffffffffffffffffffffffffffffffffffffff1916827bffffffffffffffffffffffffffffffffffffffffffffffffffffffff19161480611c1a5750611c1982611f83565b5b9050919050565b8080611c5a5750600073ffffffffffffffffffffffffffffffffffffffff168273ffffffffffffffffffffffffffffffffffffffff1614155b15611d8e576000611c6a84611181565b9050600073ffffffffffffffffffffffffffffffffffffffff168373ffffffffffffffffffffffffffffffffffffffff1614158015611cd557508273ffffffffffffffffffffffffffffffffffffffff168173ffffffffffffffffffffffffffffffffffffffff1614155b8015611ce85750611ce68184610fe0565b155b15611d2a57826040517fa9fbf51f000000000000000000000000000000000000000000000000000000008152600401611d219190612a83565b60405180910390fd5b8115611d8c57838573ffffffffffffffffffffffffffffffffffffffff168273ffffffffffffffffffffffffffffffffffffffff167f8c5be1e5ebec7d5bd14f71427d1e84f3dd0314c0f7b2291e5b200ac8c7c3b92560405160405180910390a45b505b836004600085815260200190815260200160002060006101000a81548173ffffffffffffffffffffffffffffffffffffffff021916908373ffffffffffffffffffffffffffffffffffffffff16021790555050505050565b600080611df4858585612065565b9050600073ffffffffffffffffffffffffffffffffffffffff168173ffffffffffffffffffffffffffffffffffffffff1603611e3857611e338461227f565b611e77565b8473ffffffffffffffffffffffffffffffffffffffff168173ffffffffffffffffffffffffffffffffffffffff1614611e7657611e7581856122c8565b5b5b600073ffffffffffffffffffffffffffffffffffffffff168573ffffffffffffffffffffffffffffffffffffffff1603611eb957611eb4846123b3565b611ef8565b8473ffffffffffffffffffffffffffffffffffffffff168173ffffffffffffffffffffffffffffffffffffffff1614611ef757611ef68585612484565b5b5b809150509392505050565b606060405180602001604052806000815250905090565b6060611f2582611181565b506000611f30611f03565b90506000815111611f505760405180602001604052806000815250611f7b565b80611f5a8461250f565b604051602001611f6b929190613686565b6040516020818303038152906040525b915050919050565b60007f80ac58cd000000000000000000000000000000000000000000000000000000007bffffffffffffffffffffffffffffffffffffffffffffffffffffffff1916827bffffffffffffffffffffffffffffffffffffffffffffffffffffffff1916148061204e57507f5b5e139f000000000000000000000000000000000000000000000000000000007bffffffffffffffffffffffffffffffffffffffffffffffffffffffff1916827bffffffffffffffffffffffffffffffffffffffffffffffffffffffff1916145b8061205e575061205d826125dd565b5b9050919050565b600080612071846115f0565b9050600073ffffffffffffffffffffffffffffffffffffffff168373ffffffffffffffffffffffffffffffffffffffff16146120b3576120b2818486612647565b5b600073ffffffffffffffffffffffffffffffffffffffff168173ffffffffffffffffffffffffffffffffffffffff1614612144576120f5600085600080611c21565b6001600360008373ffffffffffffffffffffffffffffffffffffffff1673ffffffffffffffffffffffffffffffffffffffff168152602001908152602001600020600082825403925050819055505b600073ffffffffffffffffffffffffffffffffffffffff168573ffffffffffffffffffffffffffffffffffffffff16146121c7576001600360008773ffffffffffffffffffffffffffffffffffffffff1673ffffffffffffffffffffffffffffffffffffffff168152602001908152602001600020600082825401925050819055505b846002600086815260200190815260200160002060006101000a81548173ffffffffffffffffffffffffffffffffffffffff021916908373ffffffffffffffffffffffffffffffffffffffff160217905550838573ffffffffffffffffffffffffffffffffffffffff168273ffffffffffffffffffffffffffffffffffffffff167fddf252ad1be2c89b69c2b068fc378daa952ba7f163c4a11628f55a4df523b3ef60405160405180910390a4809150509392505050565b6008805490506009600083815260200190815260200160002081905550600881908060018154018082558091505060019003906000526020600020016000909190919091505550565b60006122d383610a66565b90506000600760008481526020019081526020016000205490506000600660008673ffffffffffffffffffffffffffffffffffffffff1673ffffffffffffffffffffffffffffffffffffffff168152602001908152602001600020905082821461237f5760008160008581526020019081526020016000205490508082600085815260200190815260200160002081905550826007600083815260200190815260200160002081905550505b6007600085815260200190815260200160002060009055806000848152602001908152602001600020600090555050505050565b600060016008805490506123c791906136aa565b90506000600960008481526020019081526020016000205490506000600883815481106123f7576123f661318a565b5b9060005260206000200154905080600883815481106124195761241861318a565b5b906000526020600020018190555081600960008381526020019081526020016000208190555060096000858152602001908152602001600020600090556008805480612468576124676136de565b5b6001900381819060005260206000200160009055905550505050565b6000600161249184610a66565b61249b91906136aa565b905081600660008573ffffffffffffffffffffffffffffffffffffffff1673ffffffffffffffffffffffffffffffffffffffff168152602001908152602001600020600083815260200190815260200160002081905550806007600084815260200190815260200160002081905550505050565b60606000600161251e8461270b565b01905060008167ffffffffffffffff81111561253d5761253c612b41565b5b6040519080825280601f01601f19166020018201604052801561256f5781602001600182028036833780820191505090505b509050600082602001820190505b6001156125d2578080600190039150507f3031323334353637383961626364656600000000000000000000000000000000600a86061a8153600a85816125c6576125c561370d565b5b0494506000850361257d575b819350505050919050565b60007f01ffc9a7000000000000000000000000000000000000000000000000000000007bffffffffffffffffffffffffffffffffffffffffffffffffffffffff1916827bffffffffffffffffffffffffffffffffffffffffffffffffffffffff1916149050919050565b61265283838361162d565b61270657600073ffffffffffffffffffffffffffffffffffffffff168373ffffffffffffffffffffffffffffffffffffffff16036126c757806040517f7e2732890000000000000000000000000000000000000000000000000000000081526004016126be9190612cd7565b60405180910390fd5b81816040517f177e802f0000000000000000000000000000000000000000000000000000000081526004016126fd929190613161565b60405180910390fd5b505050565b600080600090507a184f03e93ff9f4daa797ed6e38ed64bf6a1f0100000000000000008310612769577a184f03e93ff9f4daa797ed6e38ed64bf6a1f010000000000000000838161275f5761275e61370d565b5b0492506040810190505b6d04ee2d6d415b85acef810000000083106127a6576d04ee2d6d415b85acef8100000000838161279c5761279b61370d565b5b0492506020810190505b662386f26fc1000083106127d557662386f26fc1000083816127cb576127ca61370d565b5b0492506010810190505b6305f5e10083106127fe576305f5e10083816127f4576127f361370d565b5b0492506008810190505b61271083106128235761271083816128195761281861370d565b5b0492506004810190505b60648310612846576064838161283c5761283b61370d565b5b0492506002810190505b600a8310612855576001810190505b80915050919050565b6000604051905090565b600080fd5b600080fd5b60007fffffffff0000000000000000000000000000000000000000000000000000000082169050919050565b6128a781612872565b81146128b257600080fd5b50565b6000813590506128c48161289e565b92915050565b6000602082840312156128e0576128df612868565b5b60006128ee848285016128b5565b91505092915050565b60008115159050919050565b61290c816128f7565b82525050565b60006020820190506129276000830184612903565b92915050565b600081519050919050565b600082825260208201905092915050565b60005b8381101561296757808201518184015260208101905061294c565b60008484015250505050565b6000601f19601f8301169050919050565b600061298f8261292d565b6129998185612938565b93506129a9818560208601612949565b6129b281612973565b840191505092915050565b600060208201905081810360008301526129d78184612984565b905092915050565b6000819050919050565b6129f2816129df565b81146129fd57600080fd5b50565b600081359050612a0f816129e9565b92915050565b600060208284031215612a2b57612a2a612868565b5b6000612a3984828501612a00565b91505092915050565b600073ffffffffffffffffffffffffffffffffffffffff82169050919050565b6000612a6d82612a42565b9050919050565b612a7d81612a62565b82525050565b6000602082019050612a986000830184612a74565b92915050565b612aa781612a62565b8114612ab257600080fd5b50565b600081359050612ac481612a9e565b92915050565b60008060408385031215612ae157612ae0612868565b5b6000612aef85828601612ab5565b9250506020612b0085828601612a00565b9150509250929050565b600060208284031215612b2057612b1f612868565b5b6000612b2e84828501612ab5565b91505092915050565b600080fd5b600080fd5b7f4e487b7100000000000000000000000000000000000000000000000000000000600052604160045260246000fd5b612b7982612973565b810181811067ffffffffffffffff82111715612b9857612b97612b41565b5b80604052505050565b6000612bab61285e565b9050612bb78282612b70565b919050565b600067ffffffffffffffff821115612bd757612bd6612b41565b5b612be082612973565b9050602081019050919050565b82818337600083830152505050565b6000612c0f612c0a84612bbc565b612ba1565b905082815260208101848484011115612c2b57612c2a612b3c565b5b612c36848285612bed565b509392505050565b600082601f830112612c5357612c52612b37565b5b8135612c63848260208601612bfc565b91505092915050565b60008060408385031215612c8357612c82612868565b5b6000612c9185828601612a00565b925050602083013567ffffffffffffffff811115612cb257612cb161286d565b5b612cbe85828601612c3e565b9150509250929050565b612cd1816129df565b82525050565b6000602082019050612cec6000830184612cc8565b92915050565b600080600060608486031215612d0b57612d0a612868565b5b6000612d1986828701612ab5565b9350506020612d2a86828701612ab5565b9250506040612d3b86828701612a00565b9150509250925092565b60008060408385031215612d5c57612d5b612868565b5b6000612d6a85828601612ab5565b925050602083013567ffffffffffffffff811115612d8b57612d8a61286d565b5b612d9785828601612c3e565b9150509250929050565b612daa816128f7565b8114612db557600080fd5b50565b600081359050612dc781612da1565b92915050565b60008060408385031215612de457612de3612868565b5b6000612df285828601612ab5565b9250506020612e0385828601612db8565b9150509250929050565b600067ffffffffffffffff821115612e2857612e27612b41565b5b612e3182612973565b9050602081019050919050565b6000612e51612e4c84612e0d565b612ba1565b905082815260208101848484011115612e6d57612e6c612b3c565b5b612e78848285612bed565b509392505050565b600082601f830112612e9557612e94612b37565b5b8135612ea5848260208601612e3e565b91505092915050565b60008060008060808587031215612ec857612ec7612868565b5b6000612ed687828801612ab5565b9450506020612ee787828801612ab5565b9350506040612ef887828801612a00565b925050606085013567ffffffffffffffff811115612f1957612f1861286d565b5b612f2587828801612e80565b91505092959194509250565b60008060008060808587031215612f4b57612f4a612868565b5b6000612f5987828801612a00565b945050602085013567ffffffffffffffff811115612f7a57612f7961286d565b5b612f8687828801612c3e565b9350506040612f9787828801612ab5565b925050606085013567ffffffffffffffff811115612fb857612fb761286d565b5b612fc487828801612c3e565b91505092959194509250565b60008060408385031215612fe757612fe6612868565b5b6000612ff585828601612a00565b925050602061300685828601612db8565b9150509250929050565b6000806040838503121561302757613026612868565b5b600061303585828601612ab5565b925050602061304685828601612ab5565b9150509250929050565b6000819050919050565b600061307561307061306b84612a42565b613050565b612a42565b9050919050565b60006130878261305a565b9050919050565b60006130998261307c565b9050919050565b6130a98161308e565b82525050565b60006020820190506130c460008301846130a0565b92915050565b7f4e487b7100000000000000000000000000000000000000000000000000000000600052602260045260246000fd5b6000600282049050600182168061311157607f821691505b602082108103613124576131236130ca565b5b50919050565b600060608201905061313f6000830186612a74565b61314c6020830185612cc8565b6131596040830184612a74565b949350505050565b60006040820190506131766000830185612a74565b6131836020830184612cc8565b9392505050565b7f4e487b7100000000000000000000000000000000000000000000000000000000600052603260045260246000fd5b7f4e487b7100000000000000000000000000000000000000000000000000000000600052601160045260246000fd5b60006131f3826129df565b91506131fe836129df565b9250828201905080821115613216576132156131b9565b5b92915050565b60008151905061322b81612da1565b92915050565b60006020828403121561324757613246612868565b5b60006132558482850161321c565b91505092915050565b60006080820190506132736000830187612cc8565b81810360208301526132858186612984565b90506132946040830185612a74565b81810360608301526132a68184612984565b905095945050505050565b6000815190506132c0816129e9565b92915050565b6000602082840312156132dc576132db612868565b5b60006132ea848285016132b1565b91505092915050565b60008190508160005260206000209050919050565b60006020601f8301049050919050565b600082821b905092915050565b6000600883026133557fffffffffffffffffffffffffffffffffffffffffffffffffffffffffffffffff82613318565b61335f8683613318565b95508019841693508086168417925050509392505050565b600061339261338d613388846129df565b613050565b6129df565b9050919050565b6000819050919050565b6133ac83613377565b6133c06133b882613399565b848454613325565b825550505050565b600090565b6133d56133c8565b6133e08184846133a3565b505050565b5b81811015613404576133f96000826133cd565b6001810190506133e6565b5050565b601f8211156134495761341a816132f3565b61342384613308565b81016020851015613432578190505b61344661343e85613308565b8301826133e5565b50505b505050565b600082821c905092915050565b600061346c6000198460080261344e565b1980831691505092915050565b6000613485838361345b565b9150826002028217905092915050565b61349e8261292d565b67ffffffffffffffff8111156134b7576134b6612b41565b5b6134c182546130f9565b6134cc828285613408565b600060209050601f8311600181146134ff57600084156134ed578287015190505b6134f78582613479565b86555061355f565b601f19841661350d866132f3565b60005b8281101561353557848901518255600182019150602085019450602081019050613510565b86831015613552578489015161354e601f89168261345b565b8355505b6001600288020188555050505b505050505050565b600081519050919050565b600082825260208201905092915050565b600061358e82613567565b6135988185613572565b93506135a8818560208601612949565b6135b181612973565b840191505092915050565b60006080820190506135d16000830187612a74565b6135de6020830186612a74565b6135eb6040830185612cc8565b81810360608301526135fd8184613583565b905095945050505050565b6000815190506136178161289e565b92915050565b60006020828403121561363357613632612868565b5b600061364184828501613608565b91505092915050565b600081905092915050565b60006136608261292d565b61366a818561364a565b935061367a818560208601612949565b80840191505092915050565b60006136928285613655565b915061369e8284613655565b91508190509392505050565b60006136b5826129df565b91506136c0836129df565b92508282039050818111156136d8576136d76131b9565b5b92915050565b7f4e487b7100000000000000000000000000000000000000000000000000000000600052603160045260246000fd5b7f4e487b7100000000000000000000000000000000000000000000000000000000600052601260045260246000fdfea2646970667358221220d71e75432959e4a06738f4c3ae50159a5df282057b09cd7c41581c8a45728ce764736f6c634300081c0033",
  "linkReferences": {},
  "deployedLinkReferences": {}
}