{
  "_format": "hh-sol-artifact-1",
  "contractName": "VerificationRegistry",
  "sourceName": "contracts/VerificationRegistry.sol",
  "abi": [
    {
      "inputs": [],
      "stateMutability": "nonpayable",
      "type": "constructor"
    },
    {
      "inputs": [
        {
          "internalType": "address",
          "name": "owner",
          "type": "address"
        }
      ],
      "name": "OwnableInvalidOwner",
      "type": "error"
    },
    {
      "inputs": [
        {
          "internalType": "address",
          "name": "account",
          "type": "address"
        }
      ],
      "name": "OwnableUnauthorizedAccount",
      "type": "error"
    },
    {
      "anonymous": false,
      "inputs": [
        {
          "indexed": true,
          "internalType": "address",
          "name": "organization",
          "type": "address"
        }
      ],
      "name": "OrganizationRevoked",
      "type": "event"
    },
    {
      "anonymous": false,
      "inputs": [
        {
          "indexed": true,
          "internalType": "address",
          "name": "organization",
          "type": "address"
        }
      ],
      "name": "OrganizationVerified",
      "type": "event"
    },
    {
      "anonymous": false,
      "inputs": [
        {
          "indexed": true,
          "internalType": "address",
          "name": "previousOwner",
          "type": "address"
        },
        {
          "indexed": true,
          "internalType": "address",
          "name": "newOwner",
          "type": "address"
        }
      ],
      "name": "OwnershipTransferred",
      "type": "event"
    },
    {
      "inputs": [
        {
          "internalType": "address",
          "name": "_organization",
          "type": "address"
        }
      ],
      "name": "isVerifiedOrganization",
      "outputs": [
        {
          "internalType": "bool",
          "name": "",
          "type": "bool"
        }
      ],
      "stateMutability": "view",
      "type": "function"
    },
    {
      "inputs": [],
      "name": "owner",
      "outputs": [
        {
          "internalType": "address",
          "name": "",
          "type": "address"
        }
      ],
      "stateMutability": "view",
      "type": "function"
    },
    {
      "inputs": [],
      "name": "renounceOwnership",
      "outputs": [],
      "stateMutability": "nonpayable",
      "type": "function"
    },
    {
      "inputs": [
        {
          "internalType": "address",
          "name": "_organization",
          "type": "address"
        }
      ],
      "name": "revokeOrganization",
      "outputs": [],
      "stateMutability": "nonpayable",
      "type": "function"
    },
    {
      "inputs": [
        {
          "internalType": "address",
          "name": "newOwner",
          "type": "address"
        }
      ],
      "name": "transferOwnership",
      "outputs": [],
      "stateMutability": "nonpayable",
      "type": "function"
    },
    {
      "inputs": [
        {
          "internalType": "address",
          "name": "_organization",
          "type": "address"
        }
      ],
      "name": "verifyOrganization",
      "outputs": [],
      "stateMutability": "nonpayable",
      "type": "function"
    }
  ],
  "bytecode": "0x608060405234801561001057600080fd5b5033600073ffffffffffffffffffffffffffffffffffffffff168173ffffffffffffffffffffffffffffffffffffffff16036100845760006040517f1e4fbdf700000000000000000000000000000000000000000000000000000000815260040161007b919061019e565b60405180910390fd5b6100938161009960201b60201c565b506101b9565b60008060009054906101000a900473ffffffffffffffffffffffffffffffffffffffff169050816000806101000a81548173ffffffffffffffffffffffffffffffffffffffff021916908373ffffffffffffffffffffffffffffffffffffffff1602179055508173ffffffffffffffffffffffffffffffffffffffff168173ffffffffffffffffffffffffffffffffffffffff167f8be0079c531659141344cd1fd0a4f28419497f9722a3daafe3b4186f6b6457e060405160405180910390a35050565b600073ffffffffffffffffffffffffffffffffffffffff82169050919050565b60006101888261015d565b9050919050565b6101988161017d565b82525050565b60006020820190506101b3600083018461018f565b92915050565b6107f2806101c86000396000f3fe608060405234801561001057600080fd5b50600436106100625760003560e01c80630289187c1461006757806319822471146100975780636d567acd146100b3578063715018a6146100cf5780638da5cb5b146100d9578063f2fde38b146100f7575b600080fd5b610081600480360381019061007c9190610646565b610113565b60405161008e919061068e565b60405180910390f35b6100b160048036038101906100ac9190610646565b610169565b005b6100cd60048036038101906100c89190610646565b61029b565b005b6100d76103cd565b005b6100e16103e1565b6040516100ee91906106b8565b60405180910390f35b610111600480360381019061010c9190610646565b61040a565b005b6000600160008373ffffffffffffffffffffffffffffffffffffffff1673ffffffffffffffffffffffffffffffffffffffff16815260200190815260200160002060009054906101000a900460ff169050919050565b610171610490565b600160008273ffffffffffffffffffffffffffffffffffffffff1673ffffffffffffffffffffffffffffffffffffffff16815260200190815260200160002060009054906101000a900460ff166101fd576040517f08c379a00000000000000000000000000000000000000000000000000000000081526004016101f490610730565b60405180910390fd5b6000600160008373ffffffffffffffffffffffffffffffffffffffff1673ffffffffffffffffffffffffffffffffffffffff16815260200190815260200160002060006101000a81548160ff0219169083151502179055508073ffffffffffffffffffffffffffffffffffffffff167f8a22fae4569bf2ed61be7a5768800f97175fc239f44f3dd3a38c402323f3c7f160405160405180910390a250565b6102a3610490565b600160008273ffffffffffffffffffffffffffffffffffffffff1673ffffffffffffffffffffffffffffffffffffffff16815260200190815260200160002060009054906101000a900460ff1615610330576040517f08c379a00000000000000000000000000000000000000000000000000000000081526004016103279061079c565b60405180910390fd5b60018060008373ffffffffffffffffffffffffffffffffffffffff1673ffffffffffffffffffffffffffffffffffffffff16815260200190815260200160002060006101000a81548160ff0219169083151502179055508073ffffffffffffffffffffffffffffffffffffffff167f549d40a34f01c931095d217eace0f976fc10b35869308c9333491bb6a96a67be60405160405180910390a250565b6103d5610490565b6103df6000610517565b565b60008060009054906101000a900473ffffffffffffffffffffffffffffffffffffffff16905090565b610412610490565b600073ffffffffffffffffffffffffffffffffffffffff168173ffffffffffffffffffffffffffffffffffffffff16036104845760006040517f1e4fbdf700000000000000000000000000000000000000000000000000000000815260040161047b91906106b8565b60405180910390fd5b61048d81610517565b50565b6104986105db565b73ffffffffffffffffffffffffffffffffffffffff166104b66103e1565b73ffffffffffffffffffffffffffffffffffffffff1614610515576104d96105db565b6040517f118cdaa700000000000000000000000000000000000000000000000000000000815260040161050c91906106b8565b60405180910390fd5b565b60008060009054906101000a900473ffffffffffffffffffffffffffffffffffffffff169050816000806101000a81548173ffffffffffffffffffffffffffffffffffffffff021916908373ffffffffffffffffffffffffffffffffffffffff1602179055508173ffffffffffffffffffffffffffffffffffffffff168173ffffffffffffffffffffffffffffffffffffffff167f8be0079c531659141344cd1fd0a4f28419497f9722a3daafe3b4186f6b6457e060405160405180910390a35050565b600033905090565b600080fd5b600073ffffffffffffffffffffffffffffffffffffffff82169050919050565b6000610613826105e8565b9050919050565b61062381610608565b811461062e57600080fd5b50565b6000813590506106408161061a565b92915050565b60006020828403121561065c5761065b6105e3565b5b600061066a84828501610631565b91505092915050565b60008115159050919050565b61068881610673565b82525050565b60006020820190506106a3600083018461067f565b92915050565b6106b281610608565b82525050565b60006020820190506106cd60008301846106a9565b92915050565b600082825260208201905092915050565b7f4e6f742076657269666965640000000000000000000000000000000000000000600082015250565b600061071a600c836106d3565b9150610725826106e4565b602082019050919050565b600060208201905081810360008301526107498161070d565b9050919050565b7f416c726561647920766572696669656400000000000000000000000000000000600082015250565b60006107866010836106d3565b915061079182610750565b602082019050919050565b600060208201905081810360008301526107b581610779565b905091905056fea2646970667358221220ebfb1a0acf1a8861b0d63a13ba89ace2e9ca99ccdd84a08b8eceb39c97389ffc64736f6c634300081c0033",
  "linkReferences": {},
  "deployedLinkReferences": {}
}