{
  "_format": "hh-sol-artifact-1",
  "contractName": "VerificationRegistry",
  "sourceName": "contracts/VerificationRegistry.sol",
  "abi": [
    {
      "inputs": [],
      "stateMutability": "nonpayable",
      "type": "constructor"
    },
    {
      "inputs": [],
      "name": "InsufficientTimeElapsed",
      "type": "error"
    },
    {
      "inputs": [],
      "name": "InvalidAddress",
      "type": "error"
    },
    {
      "inputs": [],
      "name": "OrganizationAlreadyExists",
      "type": "error"
    },
    {
      "inputs": [],
      "name": "OrganizationAlreadyVerified",
      "type": "error"
    },
    {
      "inputs": [],
      "name": "OrganizationNotFound",
      "type": "error"
    },
    {
      "inputs": [],
      "name": "OrganizationNotVerified",
      "type": "error"
    },
    {
      "inputs": [
        {
          "internalType": "address",
          "name": "owner",
          "type": "address"
        }
      ],
      "name": "OwnableInvalidOwner",
      "type": "error"
    },
    {
      "inputs": [
        {
          "internalType": "address",
          "name": "account",
          "type": "address"
        }
      ],
      "name": "OwnableUnauthorizedAccount",
      "type": "error"
    },
    {
      "inputs": [],
      "name": "ReentrancyGuardReentrantCall",
      "type": "error"
    },
    {
      "anonymous": false,
      "inputs": [
        {
          "indexed": true,
          "internalType": "address",
          "name": "organization",
          "type": "address"
        },
        {
          "indexed": false,
          "internalType": "uint256",
          "name": "timestamp",
          "type": "uint256"
        }
      ],
      "name": "OrganizationAdded",
      "type": "event"
    },
    {
      "anonymous": false,
      "inputs": [
        {
          "indexed": true,
          "internalType": "address",
          "name": "organization",
          "type": "address"
        },
        {
          "indexed": false,
          "internalType": "uint256",
          "name": "timestamp",
          "type": "uint256"
        }
      ],
      "name": "OrganizationRemoved",
      "type": "event"
    },
    {
      "anonymous": false,
      "inputs": [
        {
          "indexed": true,
          "internalType": "address",
          "name": "organization",
          "type": "address"
        },
        {
          "indexed": false,
          "internalType": "uint256",
          "name": "timestamp",
          "type": "uint256"
        }
      ],
      "name": "OrganizationRevoked",
      "type": "event"
    },
    {
      "anonymous": false,
      "inputs": [
        {
          "indexed": true,
          "internalType": "address",
          "name": "organization",
          "type": "address"
        },
        {
          "indexed": false,
          "internalType": "uint256",
          "name": "timestamp",
          "type": "uint256"
        }
      ],
      "name": "OrganizationVerified",
      "type": "event"
    },
    {
      "anonymous": false,
      "inputs": [
        {
          "indexed": true,
          "internalType": "address",
          "name": "previousOwner",
          "type": "address"
        },
        {
          "indexed": true,
          "internalType": "address",
          "name": "newOwner",
          "type": "address"
        }
      ],
      "name": "OwnershipTransferred",
      "type": "event"
    },
    {
      "inputs": [],
      "name": "MIN_VERIFICATION_DURATION",
      "outputs": [
        {
          "internalType": "uint256",
          "name": "",
          "type": "uint256"
        }
      ],
      "stateMutability": "view",
      "type": "function"
    },
    {
      "inputs": [
        {
          "internalType": "address",
          "name": "_organization",
          "type": "address"
        }
      ],
      "name": "addOrganization",
      "outputs": [],
      "stateMutability": "nonpayable",
      "type": "function"
    },
    {
      "inputs": [
        {
          "internalType": "uint256",
          "name": "_index",
          "type": "uint256"
        }
      ],
      "name": "getOrganizationAtIndex",
      "outputs": [
        {
          "internalType": "address",
          "name": "organization",
          "type": "address"
        },
        {
          "internalType": "bool",
          "name": "verifiedStatus",
          "type": "bool"
        },
        {
          "internalType": "uint256",
          "name": "verificationTimestamp",
          "type": "uint256"
        },
        {
          "internalType": "uint256",
          "name": "lastUpdateTimestamp",
          "type": "uint256"
        },
        {
          "internalType": "bool",
          "name": "exists",
          "type": "bool"
        }
      ],
      "stateMutability": "view",
      "type": "function"
    },
    {
      "inputs": [],
      "name": "getOrganizationCount",
      "outputs": [
        {
          "internalType": "uint256",
          "name": "",
          "type": "uint256"
        }
      ],
      "stateMutability": "view",
      "type": "function"
    },
    {
      "inputs": [
        {
          "internalType": "address",
          "name": "_organization",
          "type": "address"
        }
      ],
      "name": "getOrganizationDetails",
      "outputs": [
        {
          "internalType": "bool",
          "name": "verifiedStatus",
          "type": "bool"
        },
        {
          "internalType": "uint256",
          "name": "verificationTimestamp",
          "type": "uint256"
        },
        {
          "internalType": "uint256",
          "name": "lastUpdateTimestamp",
          "type": "uint256"
        },
        {
          "internalType": "bool",
          "name": "exists",
          "type": "bool"
        }
      ],
      "stateMutability": "view",
      "type": "function"
    },
    {
      "inputs": [
        {
          "internalType": "address",
          "name": "_organization",
          "type": "address"
        }
      ],
      "name": "isVerifiedOrganization",
      "outputs": [
        {
          "internalType": "bool",
          "name": "",
          "type": "bool"
        }
      ],
      "stateMutability": "view",
      "type": "function"
    },
    {
      "inputs": [],
      "name": "owner",
      "outputs": [
        {
          "internalType": "address",
          "name": "",
          "type": "address"
        }
      ],
      "stateMutability": "view",
      "type": "function"
    },
    {
      "inputs": [
        {
          "internalType": "address",
          "name": "_organization",
          "type": "address"
        }
      ],
      "name": "removeOrganization",
      "outputs": [],
      "stateMutability": "nonpayable",
      "type": "function"
    },
    {
      "inputs": [],
      "name": "renounceOwnership",
      "outputs": [],
      "stateMutability": "nonpayable",
      "type": "function"
    },
    {
      "inputs": [
        {
          "internalType": "address",
          "name": "_organization",
          "type": "address"
        }
      ],
      "name": "revokeOrganization",
      "outputs": [],
      "stateMutability": "nonpayable",
      "type": "function"
    },
    {
      "inputs": [
        {
          "internalType": "address",
          "name": "newOwner",
          "type": "address"
        }
      ],
      "name": "transferOwnership",
      "outputs": [],
      "stateMutability": "nonpayable",
      "type": "function"
    },
    {
      "inputs": [
        {
          "internalType": "address",
          "name": "_organization",
          "type": "address"
        }
      ],
      "name": "verifyOrganization",
      "outputs": [],
      "stateMutability": "nonpayable",
      "type": "function"
    }
  ],
  "bytecode": "0x608060405234801561001057600080fd5b5033600073ffffffffffffffffffffffffffffffffffffffff168173ffffffffffffffffffffffffffffffffffffffff16036100845760006040517f1e4fbdf700000000000000000000000000000000000000000000000000000000815260040161007b91906101a5565b60405180910390fd5b610093816100a060201b60201c565b50600180819055506101c0565b60008060009054906101000a900473ffffffffffffffffffffffffffffffffffffffff169050816000806101000a81548173ffffffffffffffffffffffffffffffffffffffff021916908373ffffffffffffffffffffffffffffffffffffffff1602179055508173ffffffffffffffffffffffffffffffffffffffff168173ffffffffffffffffffffffffffffffffffffffff167f8be0079c531659141344cd1fd0a4f28419497f9722a3daafe3b4186f6b6457e060405160405180910390a35050565b600073ffffffffffffffffffffffffffffffffffffffff82169050919050565b600061018f82610164565b9050919050565b61019f81610184565b82525050565b60006020820190506101ba6000830184610196565b92915050565b611982806101cf6000396000f3fe608060405234801561001057600080fd5b50600436106100b45760003560e01c80636d567acd116100715780636d567acd146101a85780636ff2c610146101c4578063715018a6146101e05780638da5cb5b146101ea578063d68287df14610208578063f2fde38b14610224576100b4565b80630289187c146100b9578063031e8eaf146100e9578063109b90d01461011d578063198224711461013b5780635734e5e31461015757806361ba81d814610175575b600080fd5b6100d360048036038101906100ce91906116a5565b610240565b6040516100e091906116ed565b60405180910390f35b61010360048036038101906100fe919061173e565b6102e4565b604051610114959493929190611789565b60405180910390f35b610125610382565b60405161013291906117dc565b60405180910390f35b610155600480360381019061015091906116a5565b610389565b005b61015f61075a565b60405161016c91906117dc565b60405180910390f35b61018f600480360381019061018a91906116a5565b610767565b60405161019f94939291906117f7565b60405180910390f35b6101c260048036038101906101bd91906116a5565b610843565b005b6101de60048036038101906101d991906116a5565b610c27565b005b6101e8611079565b005b6101f261108d565b6040516101ff919061183c565b60405180910390f35b610222600480360381019061021d91906116a5565b6110b6565b005b61023e600480360381019061023991906116a5565b61131e565b005b600061024b826113a4565b61025857600090506102df565b60006001600360008573ffffffffffffffffffffffffffffffffffffffff1673ffffffffffffffffffffffffffffffffffffffff168152602001908152602001600020546102a69190611886565b9050600281815481106102bc576102bb6118ba565b5b906000526020600020906004020160000160149054906101000a900460ff169150505b919050565b60008060008060006102f58661145f565b60006002878154811061030b5761030a6118ba565b5b906000526020600020906004020190508060000160009054906101000a900473ffffffffffffffffffffffffffffffffffffffff168160000160149054906101000a900460ff16826001015483600201548460030160009054906101000a900460ff16955095509550955095505091939590929450565b6201518081565b6103916114a0565b610399611527565b80600073ffffffffffffffffffffffffffffffffffffffff168173ffffffffffffffffffffffffffffffffffffffff1603610400576040517fe6c4247b00000000000000000000000000000000000000000000000000000000815260040160405180910390fd5b8161040a816113a4565b610440576040517f9551f8b300000000000000000000000000000000000000000000000000000000815260040160405180910390fd5b8261044a81610240565b610480576040517fd1a90b3f00000000000000000000000000000000000000000000000000000000815260040160405180910390fd5b8360006001600360008473ffffffffffffffffffffffffffffffffffffffff1673ffffffffffffffffffffffffffffffffffffffff168152602001908152602001600020546104cf9190611886565b90506000600282815481106104e7576104e66118ba565b5b906000526020600020906004020160010154036105f05760006001600360008973ffffffffffffffffffffffffffffffffffffffff1673ffffffffffffffffffffffffffffffffffffffff1681526020019081526020016000205461054c9190611886565b9050600060028281548110610564576105636118ba565b5b9060005260206000209060040201905060008160000160146101000a81548160ff0219169083151502179055504281600201819055508773ffffffffffffffffffffffffffffffffffffffff167f92d430c1a9587163a8c2168fb93014f3eec90865bb85c25833916aa829d82dd0426040516105e091906117dc565b60405180910390a250505061074b565b6201518060028281548110610608576106076118ba565b5b90600052602060002090600402016002015461062491906118e9565b42101561065d576040517f8e335d4500000000000000000000000000000000000000000000000000000000815260040160405180910390fd5b60006001600360008973ffffffffffffffffffffffffffffffffffffffff1673ffffffffffffffffffffffffffffffffffffffff168152602001908152602001600020546106ab9190611886565b90506000600282815481106106c3576106c26118ba565b5b9060005260206000209060040201905060008160000160146101000a81548160ff0219169083151502179055504281600201819055508773ffffffffffffffffffffffffffffffffffffffff167f92d430c1a9587163a8c2168fb93014f3eec90865bb85c25833916aa829d82dd04260405161073f91906117dc565b60405180910390a25050505b5050505061075761156d565b50565b6000600280549050905090565b600080600080610776856113a4565b61078d57600080600080935093509350935061083c565b60006001600360008873ffffffffffffffffffffffffffffffffffffffff1673ffffffffffffffffffffffffffffffffffffffff168152602001908152602001600020546107db9190611886565b90506000600282815481106107f3576107f26118ba565b5b906000526020600020906004020190508060000160149054906101000a900460ff16816001015482600201548360030160009054906101000a900460ff16955095509550955050505b9193509193565b61084b6114a0565b610853611527565b80600073ffffffffffffffffffffffffffffffffffffffff168173ffffffffffffffffffffffffffffffffffffffff16036108ba576040517fe6c4247b00000000000000000000000000000000000000000000000000000000815260040160405180910390fd5b816108c4816113a4565b6108fa576040517f9551f8b300000000000000000000000000000000000000000000000000000000815260040160405180910390fd5b8261090481610240565b1561093b576040517f3656ee8000000000000000000000000000000000000000000000000000000000815260040160405180910390fd5b8360006001600360008473ffffffffffffffffffffffffffffffffffffffff1673ffffffffffffffffffffffffffffffffffffffff1681526020019081526020016000205461098a9190611886565b90506000600282815481106109a2576109a16118ba565b5b90600052602060002090600402016001015403610ab45760006001600360008973ffffffffffffffffffffffffffffffffffffffff1673ffffffffffffffffffffffffffffffffffffffff16815260200190815260200160002054610a079190611886565b9050600060028281548110610a1f57610a1e6118ba565b5b9060005260206000209060040201905060018160000160146101000a81548160ff0219169083151502179055504281600101819055504281600201819055508773ffffffffffffffffffffffffffffffffffffffff167f7ac2bb7da4e28c5728f683519f4845dd668691130d0b0fe047196d0b45ac6e5342604051610aa491906117dc565b60405180910390a2505050610c18565b6201518060028281548110610acc57610acb6118ba565b5b906000526020600020906004020160020154610ae891906118e9565b421015610b21576040517f8e335d4500000000000000000000000000000000000000000000000000000000815260040160405180910390fd5b60006001600360008973ffffffffffffffffffffffffffffffffffffffff1673ffffffffffffffffffffffffffffffffffffffff16815260200190815260200160002054610b6f9190611886565b9050600060028281548110610b8757610b866118ba565b5b9060005260206000209060040201905060018160000160146101000a81548160ff0219169083151502179055504281600101819055504281600201819055508773ffffffffffffffffffffffffffffffffffffffff167f7ac2bb7da4e28c5728f683519f4845dd668691130d0b0fe047196d0b45ac6e5342604051610c0c91906117dc565b60405180910390a25050505b50505050610c2461156d565b50565b610c2f6114a0565b610c37611527565b80600073ffffffffffffffffffffffffffffffffffffffff168173ffffffffffffffffffffffffffffffffffffffff1603610c9e576040517fe6c4247b00000000000000000000000000000000000000000000000000000000815260040160405180910390fd5b81610ca8816113a4565b610cde576040517f9551f8b300000000000000000000000000000000000000000000000000000000815260040160405180910390fd5b60006001600360008673ffffffffffffffffffffffffffffffffffffffff1673ffffffffffffffffffffffffffffffffffffffff16815260200190815260200160002054610d2c9190611886565b9050610d378161145f565b600060028281548110610d4d57610d4c6118ba565b5b906000526020600020906004020160030160006101000a81548160ff0219169083151502179055506001600280549050610d879190611886565b8114610f505760026001600280549050610da19190611886565b81548110610db257610db16118ba565b5b906000526020600020906004020160028281548110610dd457610dd36118ba565b5b90600052602060002090600402016000820160009054906101000a900473ffffffffffffffffffffffffffffffffffffffff168160000160006101000a81548173ffffffffffffffffffffffffffffffffffffffff021916908373ffffffffffffffffffffffffffffffffffffffff1602179055506000820160149054906101000a900460ff168160000160146101000a81548160ff02191690831515021790555060018201548160010155600282015481600201556003820160009054906101000a900460ff168160030160006101000a81548160ff021916908315150217905550905050600181610ec791906118e9565b6003600060028481548110610edf57610ede6118ba565b5b906000526020600020906004020160000160009054906101000a900473ffffffffffffffffffffffffffffffffffffffff1673ffffffffffffffffffffffffffffffffffffffff1673ffffffffffffffffffffffffffffffffffffffff168152602001908152602001600020819055505b6002805480610f6257610f6161191d565b5b6001900381819060005260206000209060040201600080820160006101000a81549073ffffffffffffffffffffffffffffffffffffffff02191690556000820160146101000a81549060ff0219169055600182016000905560028201600090556003820160006101000a81549060ff021916905550509055600360008573ffffffffffffffffffffffffffffffffffffffff1673ffffffffffffffffffffffffffffffffffffffff168152602001908152602001600020600090558373ffffffffffffffffffffffffffffffffffffffff167f5fe79a0dab4dc1cb57fd38c0b14049d5b1684b9b1b06077e6bca1e96c735f86b4260405161106391906117dc565b60405180910390a250505061107661156d565b50565b6110816114a0565b61108b6000611576565b565b60008060009054906101000a900473ffffffffffffffffffffffffffffffffffffffff16905090565b6110be6114a0565b6110c6611527565b80600073ffffffffffffffffffffffffffffffffffffffff168173ffffffffffffffffffffffffffffffffffffffff160361112d576040517fe6c4247b00000000000000000000000000000000000000000000000000000000815260040160405180910390fd5b81611137816113a4565b1561116e576040517f69c24f0b00000000000000000000000000000000000000000000000000000000815260040160405180910390fd5b60026040518060a001604052808573ffffffffffffffffffffffffffffffffffffffff1681526020016000151581526020016000815260200142815260200160011515815250908060018154018082558091505060019003906000526020600020906004020160009091909190915060008201518160000160006101000a81548173ffffffffffffffffffffffffffffffffffffffff021916908373ffffffffffffffffffffffffffffffffffffffff16021790555060208201518160000160146101000a81548160ff021916908315150217905550604082015181600101556060820151816002015560808201518160030160006101000a81548160ff0219169083151502179055505050600280549050600360008573ffffffffffffffffffffffffffffffffffffffff1673ffffffffffffffffffffffffffffffffffffffff168152602001908152602001600020819055508273ffffffffffffffffffffffffffffffffffffffff167f424a91ecdb11da88654837a0ff14d402e92593aabef26295b0a7257f44bb2b224260405161130991906117dc565b60405180910390a2505061131b61156d565b50565b6113266114a0565b600073ffffffffffffffffffffffffffffffffffffffff168173ffffffffffffffffffffffffffffffffffffffff16036113985760006040517f1e4fbdf700000000000000000000000000000000000000000000000000000000815260040161138f919061183c565b60405180910390fd5b6113a181611576565b50565b600080600360008473ffffffffffffffffffffffffffffffffffffffff1673ffffffffffffffffffffffffffffffffffffffff168152602001908152602001600020549050600081036113fb57600091505061145a565b60028054905060018261140e9190611886565b108015611456575060026001826114259190611886565b81548110611436576114356118ba565b5b906000526020600020906004020160030160009054906101000a900460ff165b9150505b919050565b600280549050811061149d576040517f9551f8b300000000000000000000000000000000000000000000000000000000815260040160405180910390fd5b50565b6114a861163a565b73ffffffffffffffffffffffffffffffffffffffff166114c661108d565b73ffffffffffffffffffffffffffffffffffffffff1614611525576114e961163a565b6040517f118cdaa700000000000000000000000000000000000000000000000000000000815260040161151c919061183c565b60405180910390fd5b565b600260015403611563576040517f3ee5aeb500000000000000000000000000000000000000000000000000000000815260040160405180910390fd5b6002600181905550565b60018081905550565b60008060009054906101000a900473ffffffffffffffffffffffffffffffffffffffff169050816000806101000a81548173ffffffffffffffffffffffffffffffffffffffff021916908373ffffffffffffffffffffffffffffffffffffffff1602179055508173ffffffffffffffffffffffffffffffffffffffff168173ffffffffffffffffffffffffffffffffffffffff167f8be0079c531659141344cd1fd0a4f28419497f9722a3daafe3b4186f6b6457e060405160405180910390a35050565b600033905090565b600080fd5b600073ffffffffffffffffffffffffffffffffffffffff82169050919050565b600061167282611647565b9050919050565b61168281611667565b811461168d57600080fd5b50565b60008135905061169f81611679565b92915050565b6000602082840312156116bb576116ba611642565b5b60006116c984828501611690565b91505092915050565b60008115159050919050565b6116e7816116d2565b82525050565b600060208201905061170260008301846116de565b92915050565b6000819050919050565b61171b81611708565b811461172657600080fd5b50565b60008135905061173881611712565b92915050565b60006020828403121561175457611753611642565b5b600061176284828501611729565b91505092915050565b61177481611667565b82525050565b61178381611708565b82525050565b600060a08201905061179e600083018861176b565b6117ab60208301876116de565b6117b8604083018661177a565b6117c5606083018561177a565b6117d260808301846116de565b9695505050505050565b60006020820190506117f1600083018461177a565b92915050565b600060808201905061180c60008301876116de565b611819602083018661177a565b611826604083018561177a565b61183360608301846116de565b95945050505050565b6000602082019050611851600083018461176b565b92915050565b7f4e487b7100000000000000000000000000000000000000000000000000000000600052601160045260246000fd5b600061189182611708565b915061189c83611708565b92508282039050818111156118b4576118b3611857565b5b92915050565b7f4e487b7100000000000000000000000000000000000000000000000000000000600052603260045260246000fd5b60006118f482611708565b91506118ff83611708565b925082820190508082111561191757611916611857565b5b92915050565b7f4e487b7100000000000000000000000000000000000000000000000000000000600052603160045260246000fdfea2646970667358221220c0c232790a91d9802e3eb3e82ce07bf5f008d435df92928a00c9905ab44eae4364736f6c634300081c0033",
  "linkReferences": {},
  "deployedLinkReferences": {}
}